:020000040800F2
:10000000A893002049010008630D0008450C000872
:10001000210D00089307000851140008000000009B
:100020000000000000000000000000007D1000083B
:100030009509000800000000890F000885120008DB
:100040006301000863010008630100086301000800
:1000500063010008630100086301000863010008F0
:100060006301000863010008630100086D090008CE
:1000700063010008630100086301000863010008D0
:1000800063010008630100086301000863010008C0
:1000900063010008630100086301000863010008B0
:1000A00063010008630100086301000863010008A0
:1000B0006301000863010008630100086301000890
:1000C0006301000863010008630100086301000880
:1000D00063010008E51300086301000863010008DC
:1000E0006301000863010008630100086301000860
:1000F0006301000863010008630100086301000850
:10010000630100086301000863010008630100083F
:10011000630100086301000863010008630100082F
:10012000630100086301000863010008630100081F
:10013000DFF810D000F0ACFA00480047D5310008D5
:10014000AFF30080A8930020064880470648004788
:10015000FEE7FEE7FEE7FEE7FEE7FEE7FEE7FEE777
:10016000FEE7FEE79D120008310100082DE9F05F6F
:100170000546002092469B46884606468146402416
:100180001BE0284641464746224600F058F85346B1
:100190005A46C01A914110D311461846224600F023
:1001A0003FF82D1A67EB01084F4622460120002137
:1001B00000F036F817EB00094E41201EA4F10104AF
:1001C000DFDC484631462A464346BDE8F09F00F052
:1001D000004230F000400AD0C10D01F56071C0F35B
:1001E000160042EA0151C20840071143704700203F
:1001F0000146704730B50B460146002020220124FD
:1002000009E021FA02F59D4205D303FA02F5491BE4
:1002100004FA02F52844151EA2F10102F1DC30BDFA
:10022000202A04DB203A00FA02F1002070479140B6
:10023000C2F1200320FA03F3194390407047202AAB
:1002400004DB203A21FA02F00021704721FA02F380
:10025000D040C2F12002914008431946704700295E
:10026000A8BF7047401C490008BF20F0010070473C
:1002700010B4B0FA80FC00FA0CF050EA010404BF9C
:1002800010BC704749B1CCF1200421FA04F411FAF2
:100290000CF118BF012121430843A3EB0C01CB1D36
:1002A0004FEA00614FEA102042BF002010BC7047A7
:1002B00000EBC35010440029A4BF10BC7047401C81
:1002C000490008BF20F0010010BC7047F0B400F0F6
:1002D000004221F0004120F00040CE0DC30DC1F3DB
:1002E000160141F40001C0F316004C42154640F4DB
:1002F0000000761E09E010EB440002D582F00042B7
:1003000040428842F7D840005B1EB342F9DA18B188
:10031000F0BC0021FFF7ACBF2846F0BC70472DE9C8
:10032000FE4F804681EA0300C00F0C46009021F08A
:10033000004123F00045B8EB0200A94105D2404638
:10034000214690461C460B46024623F000401043CF
:1003500047D0270DC7F30A00C3F30A510290401A91
:10036000019040286BDAC3F3130040F4801B00981F
:10037000924620B10023D2EB030A63EB0B0B0198EA
:100380005946C0F140025046FFF74AFF06460D4667
:1003900050465946019A00F08DF910EB0800614172
:1003A000002487EA115284EAE7731A4340D0009A86
:1003B00062B3019A012A4FEA075215DC001B61EB78
:1003C00002014FF0004202EA0752CDE90042001C50
:1003D00041F5801132462B4600F08DF903B0BDE89F
:1003E000F08F40462146F9E7001B61EB0201001C3B
:1003F00041F5801300185B412018A2F5001747EB68
:10040000030140EAD570B6196D4111E06D084FEA5D
:10041000360645EAC0754FEA0752001B61EB020140
:10042000001C41F5801149084FEA30000019514184
:1004300032462B4603B0BDE8F04F00F04DB90098AE
:10044000012240000023D0EB020263EBE07300982E
:1004500021464FEAE074B8EB000061EB0401E9E7E4
:1004600083F000435BE781F0004158E72DE9FE4F40
:1004700081EA030404F0004421F0004100944FF0AD
:10048000000B23F0004350EA01045ED052EA03045B
:100490005BD0C3F30A54C1F30A552C44A4F2F334DD
:1004A0000194A0FB0254C1F3130141F48011C3F382
:1004B000130343F4801301FB024400FB034E840A40
:1004C000970A44EA815447EA8357A4FB07680295D8
:1004D0008D0A05FB07854FEA932C04FB0C54270576
:1004E000029D4FEA065847EA1637B5EB08056EEB52
:1004F000070C870E920E47EA811742EA8312A7FB88
:100500000201B6EB0B0164EB00042B0D43EA0C3344
:100510005E1844EB1C50DA465146E7FB0201C5F376
:1005200013044FEA0B3343EA14534FEA0432019C9D
:1005300043EA0603A4F10C040294009CCDE900B444
:1005400000F0D9F803B0BDE8F08F00200146F9E7CC
:100550002DE9F04D81EA030404F0004B21F0004541
:1005600014464FF0000A23F0004150EA050220D063
:1005700054EA01021DD0C5F30A570246C5F313031E
:10058000C1F31300C1F30A5640F4801543F48013FD
:10059000A7EB0608101BD64608F2FD3873EB0500E2
:1005A00002D308F1010801E092185B41B8F1000F95
:1005B00003DA00200146BDE8F08D00204FF48011E1
:1005C000064684460EE0171B73EB050705D3121B86
:1005D00063EB050306434CEA010C49084FEA30007F
:1005E00092185B4150EA0107EDD152EA030012D0A4
:1005F00082EA040083EA0501084305D0101BAB41E1
:1006000006D20122002306E000224FF0004302E060
:100610006FF0010253101AEB06004CEB085110EB7F
:100620000A0041EB0B01BDE8F04D00F055B8C1F3F5
:100630000A52C1F3130140F2FF3341F480119A4290
:1006400002DA00200146704740F233439A42A2F298
:10065000334202DC5242FFF7F2BDFFF7E1BD00007A
:1006600030B5041E71F1000404DB4FF00044404239
:1006700064EB0101141E73F1000405DB1C464FF00E
:100680000043524263EB0403994208BF904230BDDD
:10069000064C074D06E0E06840F0010394E80700CF
:1006A00098471034AC42F6D3FFF746FD9C43000850
:1006B000BC430008202A06DBCB17203A41FA02F09F
:1006C00043EAE07306E041FA02F3D040C2F12002AF
:1006D000914008431946704710B5141E73F1000489
:1006E00008DA401C41F1000192185B411A4301D124
:1006F00020F0010010BD2DE9F04D92469B4611B14E
:10070000B1FA81F202E0B0FA80F220329046FFF7AF
:1007100087FD04460F4640EA0A0041EA0B015346B2
:100720005A46084313D0114653EA010019D0C8F1C4
:1007300040025046FFF783FD05460E465046594697
:100740004246FFF76DFD084305D0012004E0204636
:100750003946BDE8F08D0020054346EAE0762C439B
:1007600037430A986305E40AA0EB08000022FD0A5B
:1007700044EA47540A3002D500200146E9E7010562
:1007800010196941DDE9084500196941BDE8F04DDE
:10079000A2E700BFFEE70000044880ED000AC0EDBC
:1007A000010A80ED021AC0ED031A7047308E002056
:1007B00010B52DED028BB0EE408AB0EE480A03482A
:1007C00000F010FBBDEC028B10BD0000308E00204D
:1007D00010B52DED028B0446154800F069FCB0EE13
:1007E000408A1448D0ED000AF8EEE00A60EE880A6C
:1007F000B0EE600A2146104800F03AFAF0EE408A66
:10080000F0EE680AB0EE480A0C48027840F6B831BB
:10081000002000F0BBFBF0EE680AB0EE480A0021B1
:10082000084600F0B9F8B0EE680ABDEC028B10BDC6
:10083000788E0020C8000020248E002000000020B8
:1008400010B52DED048B0446B0EE408A9FED1F0AD3
:10085000B0EE409A9FED1D0AF0EE408A012C07D1C0
:100860002046FFF7B5FF38EE400AB0EE409A06E0AA
:100870002046FFF7ADFF30EE480AB0EE409AB0EEEA
:10088000490AFFF795FFF0EE408AF0EE680AB0EEF5
:10089000490A0021084600F07FF8F0EE680AB0EE41
:1008A000490A0B48027840F6B831002000F06EFB90
:1008B00001F006FAF0EE409AF0EE690AB0EE680A2E
:1008C00002F072FFBDEC048B10BD000000000000C0
:1008D0000000002010B52DED028BB0EE408A1A48C2
:1008E00080ED008A0021194800F0A2FC174800F0B2
:1008F000C6FB154890ED000AF0EE000A80EE201AC3
:10090000F0EE418AB0EE682ADFED111A9FED111A60
:10091000DFED100AB0EE000A0F4800F037FA9FED45
:100920000F2ADFED0C1A9FED0B1ADFED0A0AB0EE6D
:10093000000A0B4800F02AFA9FED0A0A0A4800F064
:1009400083F9BDEC028B10BDA8000020788E00203A
:100950000050C34700000000308E00200000C84255
:10096000548E00206F12833A248E002010B502228C
:100970000021064802F06AF938B10222002103483A
:1009800002F05CF901200249087010BD000002402D
:10099000060000207047000030B52DED068B83B0B7
:1009A00004460D46B0EE408AF0EE608AF4B111487C
:1009B0000088401C0F49088008460088A84215DBC3
:1009C00018EE900AFFF703FC41EC190B18EE100A21
:1009D000FFF7FDFB41EC1A0B8DED009B53EC1A2B3E
:1009E00005A000F037FD00200249088003B0BDECEF
:1009F000068B30BD160000200D0A2061203D202509
:100A00006C662C2062203D20256C66200D0A0000BB
:100A100010B504465349E069096890FBF1F0606144
:100A2000B5EEC08AF1EE10FA3EDDE06900281CDC6C
:100A300094ED080AF1EE400A4A4890ED000AB8EE3B
:100A4000C01A80EE810A4749E069096890FBF1F21B
:100A500001FB120000EE900AF8EEE00A9FED421A48
:100A600001EE200A84ED010A5CE094ED080ADFED56
:100A70003F0A70EEC00A3B4890ED000AB8EEC01A7B
:100A800080EE810A3749E069096890FBF1F201FBC9
:100A9000120000EE900AF8EEE00A9FED331A01EE24
:100AA000200A84ED010A3DE0E06900281CDA94ED9B
:100AB000080AF1EE400A2B4890ED000AB8EEC01A81
:100AC00080EE810A2749E069096890FBF1F201FB99
:100AD000120000EE900AF8EEE00A9FED231A01EEF4
:100AE000200A84ED010A1DE094ED080ADFED1F0ADB
:100AF00070EEC00A1B4890ED000AB8EEC01A80EEF6
:100B0000810A1849E069096890FBF1F201FB1200C3
:100B100000EE900AF8EEE00A9FED131A01EE200AAB
:100B200084ED010A94ED010AD4ED050AF8EEE00A1D
:100B30009FED0E1A00EE810A84ED0B0A94ED0B1A5C
:100B4000F0EE410A94ED051AB8EEC11AB0EE410A72
:100B50000748027840F6B831002000F017FA94ED0B
:100B6000010A10BDC4000020DB0FC93FDB0FC940E4
:100B70000000002070B50546002400BF36E0224882
:100B8000007880B30020204908702048008880B297
:100B900000EE100AB8EE400ABCEEC00A10EE100AD1
:100BA00080B21B49088000EE100AB8EE400A1948CE
:100BB00080ED090A154800684FF6FF7101EA104000
:100BC00000EE100AB8EE400ABCEEC00A10EE100AA1
:100BD00080B21149088000EE100AB8EE400A0D48B4
:100BE00080ED0A0A06E0FFE7601C84B242F2107052
:100BF0008442C4DB00BF42F21070844203DA214613
:100C000006A000F027FC70BD06000020A000002018
:100C100002000020788E00200400002073656E73AF
:100C20006F7220616E676C6520696E6974206F6BEE
:100C3000212074696D656F7574203D2025640D0A4F
:100C40000000000000BFFEE710B52DED028B04464A
:100C5000B0EE408A84ED008A9FED040A84ED010A1B
:100C600001F01AF9A060BDEC028B10BD000000007D
:100C700070B52DED048B0446B0EE409A0E4601F09F
:100C80000BF90546A068281A00EE100AB8EE400AD3
:100C9000DFED200A20EE200AB0EE408AB5EEC08AD1
:100CA000F1EE10FA04D29FED1C0AB0EE408A0EE07D
:100CB0009FED1A0AB4EEC08AF1EE10FA07DD84ED5A
:100CC000019AA560B0EE490ABDEC048B70BD94EDAD
:100CD000000AD4ED000A70EE880AC0EE208A94ED76
:100CE000010A20EE280AF7EE000A70EEE80AF0EE9C
:100CF000409A40EE899AF0EE680AB0EE480A4FF446
:100D0000FA710020FFF748FEC4ED019AA560B0EE2D
:100D1000690AD9E7BD3786356F12833A9A99993EA9
:100D200000BFFEE7402001490860704710180140ED
:100D300010B5044622460121880703F004F910BDCE
:100D400010B5044622460221480703F0FCF810BD06
:100D500010B50446224603214FF0804003F0F3F81B
:100D600010BD704710B5002807DA0A07140E054AAF
:100D700000F00F031B1FD45403E00A07130E024AAE
:100D8000135410BD18ED00E000E400E010B52DEDA7
:100D9000068B0446B0EE408AB0EE609AF0EE418ACF
:100DA000F0EE619AB0EE42AA84ED008A84ED019AD9
:100DB000C4ED028AC4ED039A84ED04AA9FED080AEB
:100DC00084ED050A9FED060A84ED060A9FED040AEC
:100DD00084ED070A01F060F82062BDEC068B10BDBF
:100DE0000000000070B52DED068B0446B0EE409A71
:100DF00001F052F80546206A281A00EE100AB8EEF3
:100E0000400ADFED5F0A20EE200AB0EE408AB5EE20
:100E1000C08AF1EE10FA06D9B6EE000AB4EEC08A26
:100E2000F1EE10FA03DD9FED570AB0EE408A94ED23
:100E3000000A20EE09AA94ED070AD4ED010A60EE3B
:100E4000880AB6EE001A60EE810A94ED051A31EEBA
:100E5000091AF0EE409A40EE819A94ED040AB1EE40
:100E6000400AB4EEE90AF1EE10FA04DD94ED040A4A
:100E7000B1EE400A0BE094ED040AB4EEE90AF1EE9B
:100E800010FA02D294ED040A01E0B0EE690AF0EE25
:100E9000409A94ED020AD4ED050A79EE600A20EE3C
:100EA000200AC0EE08AA3AEE290A70EE2A8A94EDCA
:100EB000040AB1EE400AB4EEE80AF1EE10FA04DDDD
:100EC00094ED040AB1EE400A0BE094ED040AB4EE8E
:100ED000E80AF1EE10FA02D294ED040A01E0B0EE55
:100EE000680AF0EE408A94ED030AB5EEC00AF1EE0E
:100EF00010FA29DDD4ED060A78EEE00A80EE881AB1
:100F0000B0EE410AD4ED030AF4EEC00AF1EE10FA95
:100F100008D2D4ED060A94ED031A41EE080AF0EE69
:100F2000608A10E0D4ED030AF1EE600AF4EEC00A24
:100F3000F1EE10FA07DDD4ED060A94ED031A41EE46
:100F4000480AF0EE608A00BF94ED080AB8EE400A45
:100F5000F0EE400A00EE105AB8EE400A4FF4FA7173
:100F60000020FFF719FDC4ED079AC4ED068A84ED51
:100F7000059A2562B0EE680ABDEC068B70BD0000D4
:100F8000BD3786356F12833A70470000F0B52DEDFE
:100F9000068B85B007460D461646B0EE408AF0EE49
:100FA000608A0024002F4FD040F6B830854200DD23
:100FB000054627480088A84215DA012E13D1254896
:100FC0002349098800EB810080ED008A22482049EE
:100FD000098800EB8100C0ED008A1D480088401C94
:100FE0001B49088030E01A48008800282CDD022EBA
:100FF0002AD10020164908800026002422E0164845
:1010000000EB840090ED000A10EE101A0846FFF77E
:10101000DEF841EC190B0F4800EB840090ED000A5C
:1010200010EE101A0846FFF7D2F841EC1A0B8DEDBE
:10103000029B53EC1A2B214608A0009400F00AFAF8
:10104000601C84B2AC42DADB05B0BDEC068BF0BDAF
:10105000180000204C0100202C3000200D0A2061D7
:101060005B25645D203D2025662C20625B25645D48
:10107000203D202566200D0A00000000704710B5B5
:1010800004462046FFF776FD204601F09DFE84EDE4
:10109000030A00F001FF2061204601F095FE84ED77
:1010A000010A00F0F9FEA06010BD90ED080A70473B
:1010B00010B52DED028B04462169A068401A00EEA0
:1010C000100AB8EE400ADFED390A20EE200AF0EEF1
:1010D000408AF5EEC08AF1EE10FA03D89FED340A8B
:1010E000F0EE408A94ED010AD4ED030A30EE600A76
:1010F000B1EE400AD4E90501401A00EE900AF8EE7C
:10110000E00A9FED2C1A00EE810A80EE288AB5EEE7
:10111000C08AF1EE10FA2BD294ED061AB8EEC11A7D
:10112000F0EE410A94ED051AB8EEC11AB0EE410A8C
:1011300000210846FFF730FC94ED031AF0EE410A57
:1011400094ED011AB0EE410A00210846FFF724FC95
:1011500094ED041AB8EE411AF0EE410A94ED021A29
:10116000B8EE411AB0EE410A00210846FFF714FC20
:1011700094ED051AB8EEC11AF0EE410A94ED011A89
:10118000B0EE410A0C48027840F6B8310020FFF773
:10119000FDFE94ED010A84ED030A6069A061A06878
:1011A0002061B0EE480ABDEC028B10BDBD3786351C
:1011B0006F12833ADB0FC9400000002010B52DEDFF
:1011C000028B0446204601F0FFFDB0EE408A00F09D
:1011D00063FEA06094ED010AF0EE400AB0EE480A0A
:1011E00000210846FFF7D8FBD4ED050AF8EEE00A27
:1011F000B0EE600ADFED0C0A4FF4FA710020FFF741
:10120000CBFB94ED050AB8EEC00AF0EE400AB0EE52
:10121000680A0648027840F6B8310020FFF7B6FEAB
:10122000BDEC028B10BD000000000000000000209B
:1012300001609FED0F0A80ED010A002282609FEDA0
:101240000C0A80ED030A026142618261C2619FED76
:10125000080A80ED080A9FED060A80ED090A9FED55
:10126000040A80ED0A0A9FED020A80ED0B0A70471E
:101270000000000080ED030A80ED0B0A00214161AF
:101280007047000010B501F07FFB03480068401C68
:101290000149086010BD00000C0000201CB54E483C
:1012A000006840F470004C4908604C48006840F009
:1012B00001004A49086000BF4848006800F0020089
:1012C0000028F9D04548406800F00C00082866D195
:1012D00000BF0020019002E00198401C019001989D
:1012E0005028F9D33D4840680090009820F0F00065
:1012F0000090009840F080000090384900984860C5
:101300000020019002E00198401C019001985028B3
:10131000F9D3324840680090009820F0F000009027
:10132000009840F0900000902C4900984860002000
:10133000019002E00198401C019001985028F9D3D7
:10134000264840680090009820F0F0000090009837
:1013500040F0A000009021490098486000200190D2
:1013600002E00198401C019001985028F9D31B48D5
:1013700040680090009820F0F0000090009840F045
:10138000B00000901549009848600020019002E0EC
:101390000198401C019001985028F9D300BF0F48D4
:1013A000406820F003000D494860C82001F04BF967
:1013B0000A4800680A490840084908604FF41F00BD
:1013C00088600846006820F480200860002048609B
:1013D000C86202F073FB1CBD88ED00E00010024003
:1013E000FFFFF6FE10B50D490D4802F097FF98B1CA
:1013F0000B4802F017FFC1B20A4802880088401C5F
:10140000084B18800848815418460088022803DBDE
:101410000249034802F079FF10BD000005030500F2
:1014200000380140120000204201002010B504469F
:10143000204601F06BFC00221146252001F07AFFC6
:1014400040F20531014802F053FF10BD0038014061
:1014500000BFFEE70FB4054B10B503A9044A02987C
:1014600000F06EFD10BC5DF814FB0000E92C0008D4
:10147000E00000204100080218BF04200A0E18BF37
:1014800040F001004FF07F4232EA010108BF40F016
:101490000200012808BF05207047000070B54FF01A
:1014A00068422DED048BF0EE408A18EE900AB0EE03
:1014B000608A18EE101A02EB4003B3F1654F3CBF8F
:1014C00002EB4102B2F1654F7DD200BFC0F3C753BA
:1014D000C1F3C7529A1A1B2A09DD10F0004F14BF3E
:1014E0009FED830A9FED830ABDEC048B70BD12F162
:1014F0001A0F36DA11F0004F09D010F0004F0CBF70
:101500009FED7D0A9FED7D0ABDEC048B70BD88EEDA
:10151000889A19EE100AFFF7ADFF042808BF00F003
:1015200007FB18EE900AFFF7A5FF054618EE100A14
:10153000FFF7A0FF044619EE100AFFF79BFF042DEA
:1015400018BF052D08D1042C18BF052C04D1002884
:1015500004BF022000F0AEFBB0EE490ABDEC048BE4
:1015600070BD4200B2EB410F3AD910F0004F19BFE5
:10157000DFED630A9FED630ADFED630A9FED630A07
:10158000B0EE481A0A46B1EE688A80F00041F0EEEB
:10159000418A10460A1A5200B2F1807F34D2484084
:1015A00010F0004FDFED5A1A9FED5A2A1DBFBEEE14
:1015B000001A70EEE10A30EE420AB6EE001A08BFD9
:1015C00070EEA10A00E040E008BF30EE020AB0EE83
:1015D000682A01EE482A08EE818AC2EE081A15E050
:1015E00011F0004F04BF9FED4C0AF0EE400AD1D03D
:1015F00010F0004F19BFDFED490A9FED490ADFEDFA
:10160000490A9FED490AC5E7C8EE881A21EEA11ADA
:101610009FED462ADFED462A41EE022A9FED452A3C
:1016200001EE222ADFED442A41EE022A9FED432AF1
:10163000BDEC048B01EE222A21EE811A01EE020A92
:1016400030EE210A30EE200A70BD4FF07F42B2EB3F
:10165000400F28BFB2EB410F09D2F0EE480AB0EEBE
:10166000680ABDEC048BBDE8704000F055BA40EA52
:1016700001035B0008BF41F0FF410BD0B2EB400F0C
:1016800008BFB2EB410F08D120F0804008EE900A6D
:1016900021F0804108EE101A18E7B2EB400F12BF9C
:1016A0005FEA410340F0FF4001F000413FF40EAF1C
:1016B000B2EB410F12BF5FEA400200F0004041F080
:1016C000FF413FF403AF4A0092EA40033FF5FEAE0C
:1016D000002AACBF9FED1A0A9FED1A0A68EE808AB5
:1016E00028EE008A18EE900A18EE101AEEE60000B6
:1016F000DB0FC9BFDB0FC93FDB0F4940DB0F49C020
:101700000000C9BF22AAFDB90000C93F22AAFD39C5
:101710000060ED3EC30ACE3700000000000049C063
:1017200022AA7DBA0000494022AA7D3A2DAD65BDAE
:101730008FB8D53D0FB511BE61C84C3EA8AAAABE50
:101740000000804F0000802F10EE101A08B5444AA8
:101750006846B2EB410F28D94FF0E640B0EB410F9D
:1017600094BF00204FF0FF3000900098002861DB0C
:1017700060EE000A10F0010F45D010F0020FDFED0F
:10178000391A9FED391A00EEE11ADFED381A40EEF2
:10179000811A21EEA01AF0EE400A40EE010A08BFBD
:1017A000F1EE600AB0EE600A08BD314B21F0004254
:1017B00093423CD911F0004FDFED2E0A20EE201AA3
:1017C000DFED2D0A19BF31EE601A71EE200A31EEFD
:1017D000201A71EE600ABDEEE01A11EE100A9FEDBC
:1017E000271A00F0030000EEC10A9FED251A0090B1
:1017F00000EEC10A9FED231A00EEC10A9FED221AE6
:1018000000EEC10AB1E79FED211A9FED210A10F009
:10181000020F00EE810A9FED1F1A00EE801AB7EE4C
:10182000000A00EE810A18BFB1EE400A08BD00F0C0
:1018300087F99AE710EE100A4000B0F17F4F3CBFE5
:10184000B7EE000A08BD07D14FF0010000F032FAF0
:10185000BDE8084000F064B9BDE8084000F059B99F
:10186000B61F927E336D4C39DA82083CA0AA2ABE9C
:10187000490E494683F9223F0000004B0000C93F52
:1018800000A0FD390020A2331A61342CB93AB2BA53
:10189000CA9F2A3DDDFFFFBE10B52DED028BF0EE95
:1018A000408A18EE900AB0EE608A20F00040C0F145
:1018B000FF40C00F07D118EE100A20F00040C0F121
:1018C000FF40C00F2BD018EE101A18EE900AFEF74A
:1018D000FDFC00EE100A10EE100A6FEAD05010F076
:1018E000FF0F04BFBDEC028B10BD18EE900A00F094
:1018F000004110EE100A00F00040814204BFBDEC30
:10190000028B10BD18EE101A10EE100ABDEC028BFF
:1019100061F31E0000EE900A30EE600A10BD18EE72
:10192000900A4FF07F41B1EB400F1CBF18EE100A38
:101930005FEA4000C7D1012000F0BCF9BDEC028B8A
:10194000BDE8104000F0ECB800B510EE101A2DED17
:10195000028B81B0524A6846B2EB410F2ED94FF04C
:10196000E640B0EB410F94BF00204FF0FF300090F5
:101970000098B0EE408A00286ADB10F0010F4BD0CF
:1019800068EE080A9FED471A9FED470A00EE810AAC
:101990009FED461A10F0020F00EE801AB7EE000A13
:1019A00000EE810A02BF01B0BDEC028B00BD00BF9A
:1019B00001B0B1EE400ABDEC028B00BD3C4B21F002
:1019C0000042934241D911F0004FDFED3A0A20EE78
:1019D000201ADFED390A19BF31EE601A71EE200AC4
:1019E00031EE201A71EE600ABDEEE01A11EE100A17
:1019F0009FED321A00F0030000EEC10A9FED301A8D
:101A0000009000EEC10A9FED2F1A00EEC10A9FED73
:101A10002E1A00EEC10AABE728EE080A9FED2B1A3A
:101A2000DFED2B0A10F0020F40EE410A9FED291A5C
:101A300000EE201A61EE000AB0EE480A08EE200A15
:101A4000B6D101B0BDEC028B00BD00F079F88FE794
:101A500018EE100A4000B0F17F4F0DD218EE100AB8
:101A6000FFF708FD042808BF00F062F8B0EE480A4E
:101A700001B0BDEC028B00BD09D1012000F01AF9C4
:101A800001B0BDEC028B5DF804EB00F049B801B089
:101A9000B0EE480ABDEC028B5DF804EB00F039B8FB
:101AA000B61F927EB93AB2BACA9F2A3DDDFFFFBE89
:101AB000490E494683F9223F0000004B0000C93F10
:101AC00000A0FD390020A2331A61342C336D4C394B
:101AD000DA82083CA0AA2ABE10B52DED028BB1EE29
:101AE000C08A18EE100A20F00040C0F1FF40C00F7D
:101AF0000AD010EE100A20F00040C0F1FF40C00FE5
:101B000004BF012000F0D6F8B0EE480ABDEC028B0D
:101B100010BD30EE000A704730EE200A704700001A
:101B2000DFED020A80EEA00A70470000000000000E
:101B30009FED020A20EE000A70470000000000102E
:101B40002DE9F0014FF07F42B2EB410F9FBF4FF004
:101B5000FF310160BDE8F00170474FF0004242EAFA
:101B60000123C1F3C752783A551112F01F0C434CB0
:101B7000CCF120067C44C1F3C752A2F178024FEAAF
:101B8000621204EB820254F8254008BFD2E90156E4
:101B900012D0556804FA0CF425FA06F73C4397680E
:101BA00005FA0CF527FA06F8D26807FA0CFCF240A1
:101BB00045EA08054CEA0206A4FB034CA5FB0352C8
:101BC000A6FB03631D449D4234BF01260026131962
:101BD000334416B1934202D903E0934201D2012269
:101BE00000E00022624402F1200C9206DC0C42EA82
:101BF000443200EE102A5B03DFED210AF8EEC01A32
:101C000000EE103A4FEA9C1C11F0004FB8EE400A6B
:101C1000C0F800C020EE201A00EE105ADFED190ABD
:101C2000B8EE400A20EE200A71EE810A70EE800ABA
:101C300010EE902A02F500626FF30B0200EE902A7C
:101C400070EEE11A31EEC11ADFED101A30EE411AD2
:101C50009FED0D0A20EE800A01EE210A9FED0C1A7D
:101C600000EE810A04BFBDE8F0017047CCF180515D
:101C70000160BDE8F001B1EE400A704704280000A1
:101C8000000000360000802C22AAFD29DB0FC92F9E
:101C90000000C92F02E008C8121F08C1002AFAD1AB
:101CA00070477047002001E001C1121F002AFBD1DC
:101CB000704700000149086070470000E400002000
:101CC00010B52DED028B9FED0F0AB0EE408A0E4845
:101CD000FFF7EBF90D48D0ED000A0D4890ED001A22
:101CE000B8EEC11A51EE000AF0EE608AB0EE680A52
:101CF00000F002F9B0EE408AB0EE480ABDEC028B6B
:101D000010BD000000000000788E0020C000002000
:101D1000C80000202DE9FF5F82B00021DDE904301A
:101D2000020DDDF840B0034318D044F61050A2F283
:101D3000FF3242431514119801281FD0A5EB0B0068
:101D4000401C5FEA000A4FF000064E4FDFF8389162
:101D5000B046504615D5CAF1000413E0119801248D
:101D60004AA3012801D16FEA0B010298119AC0E938
:101D70000031C0E9024206B0BDE8F09FCBF100009F
:101D8000DFE704460021404A491842EB0450CDE900
:101D9000001012E0E00707D032463B464046494675
:101DA000FEF764FB8046894632463B46104619469C
:101DB000FEF75CFB06460F466410002CEAD1DDE915
:101DC0000401DDE90023BAF1000F06DAFEF74EFB4D
:101DD00042464B46FEF74AFB05E0FEF7B9FB42469A
:101DE0004B46FEF7B5FB04460E460022284BFEF795
:101DF00037FC03D84FF0FF30014607E00022254BA7
:101E000020463146FEF78BFAFEF711FC102409E05C
:101E1000002C0ADB0A220023FEF7A8F9039B3032CC
:101E20001A55641E50EA0102F2D1641C039AC4F1EF
:101E300011031444119A012A03D0012208430DD141
:101E40000AE0084304D000204FF0110B119072E714
:101E5000A3EB0B056D1E0DE05B4504DD4FF00002AA
:101E600005F1010504E003DA4FF00002A5F10105D8
:101E7000002AECD002981199C0E90231C0E900456E
:101E800079E70000000014400000F03F300000003F
:101E90000000F0430000E03F2DE9F0470024002659
:101EA00000BFA14600BF114804684FF0E0208669DA
:101EB0000E4800688442F6D14FF0E020406900F1FE
:101EC00001094FF47A7004FB00F5A9EB06000849FC
:101ED000A0FB017001460748002302683846FEF760
:101EE00045F905442846BDE8F08700000C000020B5
:101EF00040420F001C00002010B52DED028BF0EECB
:101F0000408A9FED0D0AB0EE408ADFED0C0AB0EE7C
:101F1000680AFFF7C1FCB0EE408AB5EEC08AF1EE68
:101F200010FA04DBB0EE480ABDEC028B10BD9FED49
:101F3000030A38EE000AF7E700000000DB0FC94093
:101F40002DE9FF4F95B09A46884606460025EEE1FA
:101F5000252877D100242746F94A0121039400E07F
:101F6000044316F8013F203B01FA03F01042F7D179
:101F700030782A2811D06FF02F033078A0F130028A
:101F8000092A16D8039A44F0020402EB820203EBFA
:101F900042021044761C0390EFE758F8042B03929A
:101FA000002A03DA504244F40054039044F002043F
:101FB000761C30782E2816D116F8010F44F0040450
:101FC0002A280DD06FF02F023078A0F13003092BB2
:101FD00009D807EB870302EB4303C718761CF3E726
:101FE00058F8047B761C30786C280FD006DC4C281F
:101FF00017D068280DD06A2814D104E0742810D0B6
:102000007A280FD10DE044F400140AE044F480145F
:1020100001E044F440147278824202D104F5801445
:10202000761C761C307866280BD013DC582877D0C5
:1020300009DC002875D04528F6D04628F4D047287A
:102040001AD193E118E0632835D0642879D0652847
:1020500012D18BE1702873D008DC6728F1D0692891
:102060006FD06E280DD06F2806D1ACE073282CD02D
:10207000752874D0782853D05246179990476D1C14
:1020800054E1C4F30250022809D003280DD0D8F837
:10209000001004280DD00D6008F1040846E1D8F8BE
:1020A0000010EA17C1E90052F6E7D8F800100D80D9
:1020B000F2E70D70F0E718F8041B8DF8001000200F
:1020C0008DF80100EB46012003E058F804BB4FF007
:1020D000FF3061074FF0000102D40DE009F101016A
:1020E0008946B9420FDA8145F8DB1BF8091000294F
:1020F000F4D108E009F1010189468142FADB1BF8BD
:1021000009100029F6D103985346A0EB0907214690
:102110003846179A00F080FA284400EB090507E0DA
:1021200044E008E10DE01BF8010B52461799904777
:10213000B9F10109F7D2534621463846179AF2E021
:1021400039E00A21C4F302524FF0000B0091022A39
:1021500006D058F8040BC117032A09D00AE023E07F
:1021600008F1070020F00702F2E80201904605E0BE
:1021700000B2C117042A01D140B2C117002906DA02
:102180000A460021404261EB02012D2202E02205B5
:1021900004D52B228DF80420012203E0E20701D0B0
:1021A0002022F7E7914657E00A2100E010214FF086
:1021B000000B00910BE010214FF0000B44F00404E1
:1021C0000827009103E008204FF0000B0090C4F3B3
:1021D0000252022A05D058F8040B0021032A08D025
:1021E00008E008F1070020F00702F2E8020190463B
:1021F00003E080B2042A00D1C0B24FF000092207E8
:102200002AD53278702A07D0DDF800C08CF0100C87
:102210005CEA0B0C05D00EE040228DF80420012270
:1022200008E050EA010306D030238DF804308DF821
:10223000052002229146009B83F0080353EA0B031A
:102240000AD150EA010201D1620705D530228DF88A
:1022500004204FF001097F1E3278582A04D039A299
:102260000C920CAA02920BE03BA2F9E75B46009AA3
:10227000FDF77CFF0C9B9B5C029A521E029213702E
:1022800050EA0102F2D1029804A9081A00F1200BC9
:10229000600702D524F4803400E001275F4502DDA9
:1022A000A7EB0B0000E0002000EB0B01009003986F
:1022B0004944401A0390E00306D453462146179A36
:1022C000039800F0A9F90544002706E001A852464A
:1022D000C05D179990476D1C7F1C4F45F6DBE003EE
:1022E0000CD553462146179A039800F095F90544FA
:1022F00004E030205246179990476D1C0099481E03
:1023000000900029F5DC08E0029802995246007816
:10231000491C0291179990476D1CBBF10001ABF16C
:10232000010BF1DC5BE100F065F90544761C3078C7
:1023300000287FF40DAE19B02846BDE8F08F0000EC
:10234000092801003031323334353637383961628B
:10235000636465660000000030313233343536374F
:10236000383941424344454600000000600700D42C
:10237000062708F1070020F00700F0E80223804656
:1023800003F0004C5FEA0C0001D097A009E02005A3
:1023900001D596A005E0E00701D095A001E0AFF2DD
:1023A0004C001390307823F0004365280CD006DCF5
:1023B000452809D046281DD047287FD13BE0662814
:1023C00018D067287AD136E00021112F01DB1120C7
:1023D00000E0781CCDE9000104A90CA8FFF79AFCE5
:1023E000DDE90D010C9A4FF0000B07F10109109285
:1023F00000914EE04FF000400097CDE9011004A994
:102400000CA8FFF787FCDDE90D020C9B0F994FF03C
:10241000000B91461093009211B9791C00EB010951
:10242000B7EB090003D4C0F1FF3B07F10109A9EBA9
:102430000700019042E0012F00DA01270021112F4F
:1024400001DD112000E03846CDE9000104A90CA807
:10245000FFF760FCDDE90D010C9A00914FF0000BD5
:10246000B946109221070FD4009A4A4503DA9146E3
:1024700001E0A9F10109B9F1010F05DD109AA9F1F7
:102480000101515C3029F4D0B84202DA10F1040F96
:1024900003DA0121CDE9011010E0002803DC8344B8
:1024A000A9EB000102E0411C494500DD8946A0EB93
:1024B0000B00401C01904FF000400290200705D413
:1024C0000198484502DB4FF0FF30019000208DF865
:1024D0004B0002980DF14B07B0F1004F25D00220C0
:1024E0000C902B200D90029800280CDA40420290AC
:1024F0002D200D9007E00A210298FDF77BFE303178
:10250000029007F8011D0C99481E0C900029F2DC7E
:1025100002980028EFD1791E0D980870307800F0ED
:10252000200040F0450007F8020D11A8C01BC01D97
:1025300002901398007800B1012000EB0901019886
:1025400001EBE071029801440398401A401E039089
:10255000E00306D453462146179A039800F05CF82E
:1025600005441398007818B15246179990476D1C8E
:10257000E00323D553462146179A039800F04CF800
:1025800005441BE0BBF1000F07DB0098584504DD54
:102590001098179910F80B0001E017993020524657
:1025A000904701980BF1010B401E05F101050190C8
:1025B00004D12E205246179990476D1CB9F10001A5
:1025C000A9F10109DEDC05E017F8010B5246179965
:1025D00090476D1C0299481E02900029F4DC534676
:1025E0002146179A03989EE62D0000002B0000005C
:1025F000200000002DE9F041044600251E46174644
:10260000880404D405E039462020B0476D1C641EC0
:10261000F9D52846BDE8F0812DE9F04104460025B2
:102620001E469046C80301D5302700E020278804C5
:1026300004D505E041463846B0476D1C641EF9D507
:102640002846BDE8F08108B50021009102E000991C
:10265000491C009100EB8001009AB2EB410FF6D3C8
:1026600008BD816841F00801816000BF816801F008
:1026700008010029FAD1816841F00401816000BF9E
:10268000816801F004010029FAD1704730B50129B1
:1026900002D002291AD10CE0C36A23F47003C3628A
:1026A000C36A541E4FF4700505EA04542343C36201
:1026B0000DE0836B23F440138363836B541E4FF44C
:1026C000401505EA04542343836300E000BF00BFC4
:1026D00030BD000010B500F095F902220021054838
:1026E00000F093FA002211460B2000F023FE00F0C8
:1026F0007BFC10BD0000024021B1826842F4006200
:10270000826003E0826822F4006282607047000009
:1027100010B504461348204430B1B0F5806F0CD09A
:10272000B0F5C05F1BD111E040F2093000F070FF3E
:1027300040F2093000F05CFF12E040F20A3000F095
:1027400067FF40F20A3000F053FF09E040F20F301B
:1027500000F05EFF40F20F3000F04AFF00E000BFE3
:1027600000BF10BD00DCFEBF816841F48071816054
:102770007047816801F0010119B9816841F00101D8
:102780008160704772B101F001031BB1836843F4AB
:102790008013836001F0020393B1836843F4004324
:1027A00083600DE001F001031BB1836823F4801303
:1027B000836001F002031BB1836823F4004383604C
:1027C0007047012902D0022910D107E0836823F461
:1027D0006023836083681343836008E0836823F485
:1027E000E043836083681343836000E000BF00BF61
:1027F000704700000549096821F47021034A1160FF
:10280000114609680143116070470000042401402B
:10281000F0B51D4606290CD2436B01EB81071F263C
:10282000BE40B34301EB810602FA06F6334343632D
:1028300022E00C290ED2036B8E1F06EB86071F26A3
:10284000BE40B3438E1F06EB860602FA06F63343FC
:10285000036311E010290FD2C36AA1F10C0606EB45
:1028600086071F26BE40B343A1F10C0606EB860681
:1028700002FA06F63343C3620A2A0CD2046902EB59
:1028800042070726BE40B44302EB420605FA06F6AD
:102890003443046111E0122A0FD2C468A2F10A067F
:1028A00006EB46070726BE40B443A2F10A0606EB34
:1028B000460605FA06F63443C460F0BDAAB101F439
:1028C00080731BB1436843F48073436001F48063F9
:1028D0001BB1436843F48063436001F00203CBB152
:1028E000836843F00203836014E001F480731BB13A
:1028F000436823F48073436001F480631BB1436831
:1029000023F48063436001F002031BB1836823F06A
:10291000020383607047000010B52DED028B044662
:10292000B0EE408A94ED080A38EE400AF0EE408A94
:10293000B0EEE80ADFED0E0AB4EEE00AF1EE10FAAE
:102940000BDDF5EEC08AF1EE10FA03D2E069401E0D
:10295000E06102E0E069401CE06184ED088A204605
:10296000FEF756F894ED010ABDEC028B10BD000095
:102970007CD9A0400349086000BF024909680029CA
:10298000FBD17047080000200448006820B10348CC
:102990000068401E014908607047000008000020E0
:1029A00070B505460C462146284600F091F908B955
:1029B00000BFFEE704EB8400810005F108004058E9
:1029C00040F0010104EB8400820005F10800815011
:1029D00070BD70B505460C462146284600F078F9D2
:1029E00008B900BFFEE704EB8400810005F1080090
:1029F000405840F0200104EB8400820005F10800FB
:102A0000815070BD00B587B04FF4A06000F0E0FDCC
:102A10000021134800F02AF81248009000208DF899
:102A200018001148029001208DF819004002019011
:102A30008000039000208DF81A000220049000030B
:102A400005906A460021064800F048F80021044835
:102A5000FFF7BFFF00210248FFF7A2FF07B000BD4C
:102A6000000002404C240140A000002070B5044644
:102A70000D462946204600F02BF908B900BFFEE7B5
:102A800005EB8500810004F10800405820F00101A9
:102A900005EB8500820004F108008150002105EB60
:102AA0008500820004F10800815005EB850082005A
:102AB00004F10C00815005EB8500820004F1100048
:102AC000815005EB8500820004F11400815060689C
:102AD000AA000F2191400843606070BD2DE9F041CC
:102AE00004460D4616462946204600F0F1F808B97E
:102AF00000BFFEE705EB8500820004F1100031689D
:102B0000815005EB8500820004F11400B16881500A
:102B1000308A81B205EB8500820004F10C008150FF
:102B200005EB8500810004F10800475827F47C5725
:102B3000F1687068084371690843074305EB850035
:102B4000810004F108004750307E01280ED105EBCA
:102B50008500810004F10800405840F0400105EB79
:102B60008500820004F1080081500DE005EB85002E
:102B7000810004F10800405820F0400105EB850079
:102B8000820004F108008150707E01280ED105EB0F
:102B90008500810004F10800405840F0800105EBF9
:102BA0008500820004F1080081500DE005EB8500EE
:102BB000810004F10800405820F0800105EB8500F9
:102BC000820004F108008150B07E70B905EB8500E9
:102BD000810004F10800405820F0100105EB850049
:102BE000820004F1080081500DE005EB85008100B2
:102BF00004F10800405840F0100105EB8500820008
:102C000004F108008150BDE8F08170B504460D461E
:102C100016462946204600F05BF808B900BFFEE7DB
:102C200005EB8500810004F108004058304305EBB6
:102C300085018A0004F10801885070BD10B5436811
:102C40008C0002FA04F42343436010BD70B50346C0
:102C500000BF00BF022A04D0042A11D0082A2DD1B7
:102C60001DE018688E0002FA06F600EA060501EB80
:102C70008100860003F10800805900F002041FE083
:102C800018688E0002FA06F600EA060501EB8100DC
:102C9000860003F10800805900F0040410E0186871
:102CA0008E0002FA06F600EA060501EB81008600B6
:102CB00003F10800805900F0080401E000BFFEE7BE
:102CC00000BF15B10CB1012070BD0020FCE7000071
:102CD00002460120034B9A4202D1042900DD002064
:102CE000704700000004024070B504460D46E1B292
:102CF000054801F09CFA00BF0721034801F0E9FAFA
:102D00000028F9D0204670BD0038014070B5054656
:102D100000241D48854200D103E01C48854200D1B3
:102D200001241B4931F8140000F052FC194931F814
:102D3000140000F04DFC184951F82430174951F89F
:102D400024000322182100F0F1F8154951F824302D
:102D5000124951F824000322042100F0E7F8284624
:102D600001F06AFA4FF4E131284601F013FA042128
:102D7000284601F0EFFA0821284601F0F5FA284626
:102D800001F0A2FA70BD000000380140004400408C
:102D90005C0000204000002044000020540000207F
:102DA0004C00002080ED000AF6EE001AB0EE601A2A
:102DB00001EE801ADFED031A21EE211A81ED001ACF
:102DC000704700003ACD933F10B52DED048B82B0D3
:102DD0000446D4ED090AB0EE600A3C4800F0A4F9BC
:102DE000B0EE409AD4ED0A0AB0EE600A384800F01E
:102DF0009BF9F0EE409A694601A8F0EE690AB0EE40
:102E0000490AFFF7CFFFDDED010A60EEA00A9DED54
:102E1000001ADDED001A41EE210AB0EE600AFEF75D
:102E20005BFEF0EE408A9FED2B0AF4EEC08AF1EED5
:102E300010FA0BDD9DED010AC0EE280ACDED010A66
:102E40009DED000AC0EE280ACDED000ADDED000A76
:102E50009DED010AFEF722FBB0EE408AB5EEC08A76
:102E6000F1EE10FA05D29FED1C0A38EE000AB0EE22
:102E7000408A9FED190AB4EEC08AF1EE10FA05DB24
:102E80009FED150A38EE400AB0EE408AB0EE480ACF
:102E90002046FFF741FDB0EE408ADFED0F0AB0EEAD
:102EA000480AFEF7F9FCB0EE408AB5EEC08AF1EEB2
:102EB00010FA05D29FED080A38EE000AB0EE408AFB
:102EC000B0EE480A02B0BDEC048B10BD0C5F0020D0
:102ED000285F00206F12833ADB0FC94010B540F223
:102EE000026000F075FB40F2026000F071FB40F2FE
:102EF000066000F06DFB40F2066000F069FB0E23F7
:102F000003221821074800F011F840230322102162
:102F1000054800F00BF8402303221021024800F07E
:102F200005F810BD0008014000180140F0B5044646
:102F300016460025002201F00F0501F0100747B1E9
:102F4000042E05D145F00305E76B1F43E76300E05E
:102F5000354300201EE0012787401F40C7B122688B
:102F60004FEA800C0F2707FA0CF7BA43870005FADF
:102F700007F73A43282904D1012787401F4067619A
:102F800005E0482903D1012787401F4027612260BF
:102F9000471CB8B20828DED3082022E0012787406A
:102FA0001F40E7B16268A0F108074FEA870C0F27BE
:102FB00007FA0CF7BA43A0F10807BF0005FA07F7B4
:102FC0003A43282904D1012787401F40676105E063
:102FD000482903D1012787401F4027616260471CB1
:102FE000B8B21028DAD3F0BD10B540F2046000F09A
:102FF000EFFA40F2096000F0EBFA40F20A6000F0EC
:10300000E7FA2223042200213048FFF78FFF3048DF
:10301000FFF77EFB4FF4C020FFF7ECFB012211020B
:103020002B48FFF74BFC012211022A48FFF746FC10
:1030300000212748FFF760FB00212648FFF75CFBD3
:10304000012211462248FFF721FB012211462148A7
:10305000FFF71CFB05230B2200211D48FFF7D8FBBF
:1030600005230F2200211B48FFF7D2FB4FF400225B
:1030700001211748FFF7A5FB4FF4602201211548F5
:10308000FFF79FFB012211461148FFF77BFB01224E
:1030900011461048FFF776FB022000F0B7F90C4804
:1030A000FFF767FB0120FFF765FC0948FFF7D9FA36
:1030B0000848FFF75EFB0120FFF75CFC0548FFF7BF
:1030C000D0FA0348FFF750FB10BD0000001001408C
:1030D00000240140002801401FB540F2017000F0BB
:1030E00077FA104800F076FF684601F047F841F2A1
:1030F0006F70ADF800000020ADF80200ADF80400DC
:10310000012002900020ADF806006946054800F055
:10311000D5FF2021034801F01DF8024800F0C8FF48
:103120001FBD000000040040F0EE400A017E11B90E
:103130009FED050A704790ED000A30EEC01AD0ED01
:10314000011A81EE210AF5E7000000009FED180A40
:1031500080ED020A9FED170A80ED030A9FED160A23
:10316000164981ED000A9FED160A81ED010AB1EEC4
:10317000000A81ED040A9FED130A81ED050A012181
:103180000E4A11769FED100A104981ED000A9FED5D
:10319000100A81ED010AB1EE000A81ED040A9FEDEB
:1031A000090A81ED050A0121084A117670470000DD
:1031B000002474C9002474490080FE440C5F002080
:1031C00000409D44E66C703F0000FF44285F0020F3
:1031D00000C0A244002400F075FCFFF77FFE3348D6
:1031E000FEF724F9FFF778FFFFF774FA3048FFF78E
:1031F000ADFF9FED300A3048FEF73CF8FDF792FD39
:10320000C820FFF7B7FB00F0DEFEB2EE020AFDF7C2
:1032100061FBDFED281A9FED271ADFED280A9FEDED
:10322000280AFDF7B9FA274800F072F8264800F09E
:103230006FF839E02548008801280DDD244804781E
:1032400040782449087008460278214622A0FEF7FB
:1032500001F900201D4908802948007820B300208A
:10326000274908702748008880B22749088000EE67
:10327000100AB8EE400A104880ED090A214800689B
:103280004FF6FF7101EA10402049088000EE100A55
:10329000B8EE400A084880ED0A0A00EE104AB8EE7F
:1032A000400A0120FDF7CCFAC4E7000000380140D5
:1032B0000C5F002000000000788E00200AD7233C1D
:1032C00017B7D138E80000201001002012000020BC
:1032D00042010020000000200D0A207365745F7316
:1032E00070656564203D20257820675F7374617286
:1032F000745F666C6167203D2025640D0A00000044
:1033000006000020A0000020020000200400002091
:103310000021002280F8202080F82120426200BF96
:1033200004E0002220F811204A1C91B21029F8DB99
:10333000704700002DE9F04103460D461646002473
:103340000027A0462A48006800F4E060B0F5E06F6E
:1033500003D100BF4FF0040830E02548006800F4B6
:10336000E060B0F5C06F03D101274FF0030825E0FE
:103370001F48006800F4E060B0F5A06F02D102279A
:10338000B8461BE01A48006800F4E060B0F5806FB2
:1033900003D103274FF0010810E01548006800F43E
:1033A000E060B0F5407F03D104274FF0000805E04E
:1033B0004FF4A06000F020F80227B846C7F10400DF
:1033C00005FA00F4C8F104010F20C840304004435E
:1033D00024010848C45403F01F01012088405911FA
:1033E000890001F1E021C1F80001BDE8F081000091
:1033F0000CED00E000E400E002490143024A1160E4
:10340000704700000000FA050CED00E0184B596809
:10341000184B1940164BDA6A22F000520C2820D2C1
:10342000DFE800F0060708091F0C1F0D1516171816
:1034300000BF00BF00BF41EA803113E000BF20F0B1
:1034400004004FF0805343EA803319430AE000BF81
:1034500000BF00BF20F00C0041EA803142F0005272
:1034600000E000BF00BF024B5960DA627047000005
:1034700000100240FF3FFFEF2DE9F04F8CB00746F0
:1034800000200A904AA090E8004CC068CDE905BE33
:10349000CDF810A007900FF21C1ADAE9000ACDE966
:1034A000020A0FF2101ADAE9000ACDE9000A4448CC
:1034B0004068C0F381000B900B9820B1012804D024
:1034C00002283FD103E03F4A3EE03E4A3CE03C4810
:1034D000406800F4803CBCF5803F12D13848C06A97
:1034E00000F08048B8F1000F01D1364B00E0364BB8
:1034F0003348406800F40039B9F5003F02D15B0859
:1035000000E0324B2E484068C0F383412C484068AD
:1035100000F0006008B141F010012948406800F057
:10352000804008B141F020010F2901D2891C06E03A
:103530000F2903D33E2901D8491C00E03F2103FB9A
:1035400001F201E01F4A00BF00BF1D484068C0F300
:10355000031504A8465D22FA06F419484068C0F332
:10356000022502A8465D24FA06F009901448406836
:10357000C0F3C2251DF8056024FA06F0089037B1A3
:10358000012F06D0022F06D0032F0AD106E00A929F
:1035900008E00A9406E009980A9003E008980A9067
:1035A00000E000BF00BF0A980CB0BDE8F08F00003B
:1035B00000000000000000000102030406070809E3
:1035C0000010024000127A00006CDC0200093D008D
:1035D000064A02EB9011096800F01F0301229A408D
:1035E0001143024B03EB9012116070470010024030
:1035F000064A02EB9011096800F01F0301229A406D
:103600009143024B03EB901211607047001002408F
:10361000064A02EB9011096800F01F0301229A404C
:103620001143024B03EB90121160704700100240EF
:1036300010B52DED068BB0EE408AF0EE608AB0EE4C
:10364000419A554890ED000AC8EE000AF5EEC00A0E
:10365000F1EE10FA02D29FED510A13E04E4890EDC0
:10366000000AC8EE000AB7EE000AF4EEC00AF1EE56
:1036700010FA02DDB7EE000A04E04748D0ED000A78
:1036800088EE200AF0EE409A434890ED000AC8EE1A
:10369000800AF5EEC00AF1EE10FA02D29FED3F0A61
:1036A00013E03D48D0ED000A88EEA00AF7EE000ACC
:1036B000B4EEE00AF1EE10FA02DDB7EE000A04E023
:1036C0003548D0ED000A88EEA00AB0EE40AA324894
:1036D00090ED000AC9EE000AF5EEC00AF1EE10FA0C
:1036E00002D29FED2E0A13E02B48D0ED000A89EE9E
:1036F000200AF7EE000AB4EEE00AF1EE10FA02DD5D
:10370000B7EE000A04E02448D0ED000A89EE200A52
:10371000F0EE40AA9FED220A29EE800ABCEEC00A14
:1037200010EE101A88B2FDF703FB9FED1D0A2AEE7A
:10373000000ABCEEC00A10EE101A88B2FDF700FBBA
:103740009FED170A2AEE800ABCEEC00A10EE101A8E
:1037500088B2FDF7FDFAF0EE4A0AB0EE690A1148A8
:10376000027840F6B8310020FDF710FCF0EE4A0A6E
:10377000B0EE690A4FF4FA710020FDF70DF9DFEDA4
:10378000070AB0EE6A0A4FF4FA710020FDF704F957
:10379000BDEC068B10BD0000A8000020000000005A
:1037A00000007F430000002010B52DED048BF0EEEB
:1037B000408AB0EE609A704890ED000AF0EE000A80
:1037C00080EE201AB0EE418A6C48FDF7F7FCB1EEAE
:1037D000480AF4EEC08AF1EE10FA02D2B1EE480ABD
:1037E00009E0F4EEC88AF1EE10FA02DDB0EE480A04
:1037F00001E0B0EE680AF0EE408AB0EE490AFEF74A
:103800007BFBB0EE409AB0EE490AFDF79DFF20EE3B
:10381000280A5B4880ED000AB0EE490AFEF794F8EA
:1038200020EE280A574880ED000A554890ED000A1E
:1038300030EE080A544880ED000A514890ED000A25
:10384000FEEE000A20EE200A4E48D0ED000A9FED61
:103850004F1A01EE200A30EE080A4D4880ED000AAA
:10386000474890ED000AFEEE000A20EE200A454887
:10387000D0ED000A9FED451A01EE600A30EE080A0D
:10388000444880ED000A404890ED000AB5EEC00AB9
:10389000F1EE10FA02D29FED400A10E03A4890EDA6
:1038A000000A3548D0ED000AB4EEE00AF1EE10FA55
:1038B00002DD90ED000A02E0334890ED000A324844
:1038C00080ED000A324890ED000AB5EEC00AF1EE34
:1038D00010FA02D29FED300A10E02D4890ED000A58
:1038E0002548D0ED000AB4EEE00AF1EE10FA02DD50
:1038F00090ED000A02E0264890ED000A244880ED91
:10390000000A244890ED000AB5EEC00AF1EE10FA64
:1039100002D29FED210A10E01E4890ED000A1648E1
:10392000D0ED000AB4EEE00AF1EE10FA02DD90EDFF
:10393000000A02E0174890ED000A164880ED000AE0
:103940001348D0ED000A104890ED000A13480278A1
:1039500040F6B8310020FDF719FB0E4890ED001A33
:103960000B48D0ED000A084890ED000AFFF760FE12
:10397000BDEC048B10BD0000A8000020788E002054
:10398000AC000020B0000020B4000020D7B35D3FA1
:10399000B8000020BC000020000000000000002053
:1039A00008B500200021414A126842F480323F4BA2
:1039B0001A6000BF401C3D4A126802F4003119B978
:1039C0004FF6FF729042F5D1384A126802F4003285
:1039D0000AB900BFFEE7354AD26942F08052334B44
:1039E000DA61334A126842F44042314B1A602F4A7E
:1039F00052682E4B5A601A4652685A601A465268EC
:103A000042F480625A601A46526822F440325A6088
:103A10001A46526842F440325A601A465268254BA0
:103A20001A40224B5A601A465268234B1A431F4BC6
:103A30005A601A46126842F080721A6000BF1B4A30
:103A4000126802F00072002AF9D0194A126842F492
:103A50008032174B1A6000BF154A526802F4803258
:103A6000002AF9D0124A126842F40032104B1A6050
:103A700000BF0F4A526802F40032002AF9D00B4A04
:103A800052680092009A22F003020092009A42F0DB
:103A900002020092054B009A5A6000BF034A526826
:103AA00002F00802002AF9D008BD00000010024010
:103AB00000700040FFFFC3B70000340810B5FFF7E7
:103AC0006FFF10BD10B5124800684FF47A71B0FB5B
:103AD000F1F4601EB0F1807F01D301200FE0601E81
:103AE0004FF0E02148610F214FF0FF30FDF73AF928
:103AF00000204FF0E021886107200861002008B114
:103B000000BFFEE70021481EFDF72CF910BD0000A4
:103B10001C00002000B587B040F20B60FFF758FD95
:103B2000364800F057FA7720ADF800000020ADF8D5
:103B30000200ADF804004FF4807002900020ADF850
:103B400006008DF80C0069462C4800F0B7FA0120F9
:103B5000ADF810000020ADF81200ADF81400ADF87B
:103B60001600ADF81800ADF81A0004AA0021234889
:103B700000F0C6F804AA0121204800F0C1F804AA08
:103B800002211E4800F0BCF8FA2200211B4800F078
:103B9000DAF9FA220121194800F0D5F9FA220221B6
:103BA000164800F0D0F960220021144800F09EF978
:103BB00060220121114800F099F9602202210F488A
:103BC00000F094F9002211460C4800F0CFF90022D1
:103BD00001210A4800F0CAF900220221074800F03A
:103BE000C5F90121054800F0BDFA044800F082F84B
:103BF000024800F05DFA07B000BD0000002C014053
:103C000000B587B04FF4E060FFF7E2FC4FF0804072
:103C100000F0E0F97720ADF800000020ADF80200D8
:103C2000ADF804004FF4807002900020ADF806005B
:103C30008DF80C0069464FF0804000F03FFA0120FB
:103C4000ADF810000020ADF81200ADF81400ADF88A
:103C50001600ADF81800ADF81A0004AA0121880773
:103C600000F04EF804AA0221480700F049F804AA1F
:103C700003214FF0804000F043F8FA220121880729
:103C800000F061F9FA220221480700F05CF9FA22FB
:103C90000321500700F057F960220121880700F046
:103CA00025F960220221480700F020F96022032153
:103CB0004FF0804000F01AF900220121880700F03F
:103CC00055F900220221480700F050F90022032193
:103CD0004FF0804000F04AF90121880700F042FAD5
:103CE0004FF0804000F006F84FF0804000F0E0F91F
:103CF00007B000BD016841F080010160704700001D
:103D000010B531B101293FD002297DD003297CD1E2
:103D1000BFE0036A23F001030362836923F0030316
:103D20008361036A148823430362036A23F0020356
:103D30000362036A9488234303626A4B984202D069
:103D4000694B98421FD1036A23F004030362036A9C
:103D5000548823430362036A23F008030362036A5F
:103D6000D48823430362436823F480734360436829
:103D7000148923434360436823F40073436043681A
:103D8000548923434360ABE0036A23F010030362CA
:103D9000836923F440738361036A148843EA04133C
:103DA0000362036A23F020030362036A948843EAF0
:103DB000041303624B4B984202D04B4B984226D1DE
:103DC000036A23F040030362036A548843EA04133E
:103DD0000362036A23F080030362036AD48843EA20
:103DE00004130362436823F48063436043681489C7
:103DF00043EA84034360436823F4006343604368F9
:103E0000548943EA840301E002E068E0436067E02C
:103E1000036A23F480730362C36923F00303C3615D
:103E2000036A148843EA04230362036A23F40073D9
:103E30000362036A948843EA04230362294B98428D
:103E400002D0294B984223D1036A23F48063036292
:103E5000036A548843EA04230362036A23F4006379
:103E60000362036AD48843EA04230362436823F4A9
:103E7000805343604368148943EA041343604368F2
:103E800023F4005343604368548943EA04134360B6
:103E900026E0036A23F480530362C36923F440736A
:103EA000C361036A148843EA04330362036A23F498
:103EB00000530362036A948843EA04330362094BA4
:103EC000984202D0084B984208D1436823F48043BB
:103ED00043604368148943EA8413436000E000BFF1
:103EE00000BF10BD002C01400034014031B1012958
:103EF0000CD0022913D0032922D118E0836923F0C2
:103F0000700383618369134383611AE0836923F437
:103F1000E0438361836943EA0223836111E0C3695B
:103F200023F07003C361C3691343C36109E0C3692C
:103F300023F4E043C361C36943EA0223C36100E0A1
:103F400000BF00BF704731B1012906D0022906D059
:103F5000032908D105E0426306E0826304E0C263FE
:103F600002E0026400E000BF00BF704731B10129E8
:103F70000CD0022913D0032922D118E0836923F041
:103F8000080383618369134383611AE0836923F41F
:103F900000638361836943EA0223836111E0C3699B
:103FA00023F00803C361C3691343C36109E0C36914
:103FB00023F40063C361C36943EA0223C36100E0E1
:103FC00000BF00BF704710B5FFF7A4FDFFF718FE54
:103FD00010BD000010B504463349601A8C4244D02D
:103FE0000CDCB4F1804F1CD03048204410B3B0F545
:103FF000806F28D0B0F5006F52D12DE0B0F5806F02
:104000003CD0B0F58E3F03D0B0F5923F48D13EE0B2
:1040100040F20B30FFF7FCFA40F20B30FFF7E8FA02
:104020003FE04FF48060FFF7F3FA4FF48060FFF752
:10403000DFFA36E040F20140FFF7EAFA40F20140D1
:10404000FFF7D6FA2DE040F20240FFF7E1FA40F226
:104050000240FFF7CDFA24E040F20340FFF7D8FA20
:1040600040F20340FFF7C4FA1BE040F20440FFF7C0
:10407000CFFA40F20440FFF7BBFA12E040F20540ED
:10408000FFF7C6FA40F20540FFF7B2FA09E040F246
:104090000D30FFF7BDFA40F20D30FFF7A9FA00E04E
:1040A00000BF00BF10BD00000010004000FCFFBFBB
:1040B000016841F001010160704700000A888262D6
:1040C0001D4A90420ED0B0F1804F0BD01B4A904257
:1040D00008D01B4A904205D01A4A904202D01A4A90
:1040E00090420BD1026822F07002026002684B8895
:1040F0001A43026002688B881A4302608A68C262AF
:10410000124A90420AD0124A904207D0026822F422
:10411000407202600268CB881A430260064A9042ED
:1041200002D0094A904201D10A7B0263426942F0FF
:104130000102426170470000002C01400004004071
:1041400000080040000C0040003401400010004016
:1041500000140040426822F07002426042680A4344
:1041600042607047012904D1426C42F4004242642B
:1041700003E0426C22F40042426470470021018057
:10418000418081804FF6FF7181600021C180017301
:10419000704700002DE9F04704460D460027B84659
:1041A000B94600261D49601A8C421CD006DC1C480A
:1041B000204470B1B0F5806F1FD10FE0B0F5806F73
:1041C00016D0B0F56C4F18D10320FFF755F907460C
:1041D00014E00220FFF750F907460FE00220FFF736
:1041E0004BF907460AE00220FFF746F9074605E0CB
:1041F0000220FFF741F9074600E000BF00BF07EBD0
:104200005500B0FBF5F64FF6F07006EA000806F030
:104210000F0948EA0900A060BDE8F087004C0040A3
:1042200000BCFFBF01464868C0F308007047C1F3F7
:10423000080242607047000010B504462049601A29
:104240008C4228D006DC1F48204490B1B0F5806F26
:1042500033D117E0B0F5806F26D0B0F56C4F2CD17C
:1042600040F20E30FFF7D4F940F20E30FFF7C0F9FC
:1042700024E040F21140FFF7CBF940F21140FFF784
:10428000B7F91BE040F21240FFF7C2F940F21240CA
:10429000FFF7AEF912E040F21340FFF7B9F940F230
:1042A0001340FFF7A5F909E040F21440FFF7B0F919
:1042B00040F21440FFF79CF900E000BF00BF10BDC2
:1042C000004C004000BCFFBFC16841F40051C16018
:1042D000704710B5024602EB9110006801F01F0410
:1042E0000123A340184008B1012010BD0020FCE7C5
:1042F00010B500EB9112126801F01F040123A340D6
:104300001A4300EB91131A6010BDC1F3044301225C
:104310009A40D24300EB91531A60704770B5024641
:1043200000230024C1F38910105801F01F06012555
:10433000B54000EA050302EB91500068C1F3044662
:104340000125B54000EA050414B10BB1012070BD90
:104350000020FCE7C26822F00402C260C26801F0DB
:1043600004031A43C2607047C26822F00802C260A8
:10437000C26801F008031A43C260704700000000E1
:104380006E83F9A22915444ED15727FCC0DD34F5C0
:10439000999562DB4190433CAB6351FEBC430008FE
:1043A00000000020E8000000941C0008A44400085D
:1043B000E8000020C0920000A41C000800000000DB
:1043C00000000000000000000000000000000000ED
:1043D0000000000000000000000E27070010014050
:1043E00000100140001801400018014001000000C9
:1043F0000400000001000000020000000E0611078A
:10440000000200000400000000040000080000009A
:1044100000080140000801400206020604060406E6
:10442000060606060008014000100140000C01408D
:104430000100000000200000004000000206040609
:104440000306000001000000002000000040000002
:10445000000201000D0E06282800000000000000E8
:10446000000000000000000000000000000000004C
:10447000000000000000000000000000000000003C
:104480000400000001000000000000000000000027
:10449000010000000000000000000000000000001B
:0444A0000000000018
:0400000508000131BD
:00000001FF
