:020000040800F2
:10000000E8620020490100084B07000803070008C8
:1000100007070008D3060008390A0008000000009E
:100020000000000000000000000000006908000857
:100030000107000800000000750700086D080008AF
:100040006301000863010008630100086301000800
:1000500063010008630100086301000863010008F0
:10006000630100086301000863010008D906000865
:1000700063010008630100086301000863010008D0
:1000800063010008630100086301000863010008C0
:1000900063010008630100086301000863010008B0
:1000A00063010008630100086301000863010008A0
:1000B0006301000863010008630100086301000890
:1000C0006301000863010008630100086301000880
:1000D00063010008CD0900086301000863010008FE
:1000E0006301000863010008630100086301000860
:1000F0006301000863010008630100086301000850
:10010000630100086301000863010008630100083F
:10011000630100086301000863010008630100082F
:10012000630100086301000863010008630100081F
:10013000DFF810D000F04CFA0048004759260008BC
:10014000AFF30080E8620020064880470648004779
:10015000FEE7FEE7FEE7FEE7FEE7FEE7FEE7FEE777
:10016000FEE7FEE785080008310100082DE9F05F91
:100170000546002092469B46884606468146402416
:100180001BE0284641464746224600F058F85346B1
:100190005A46C01A914110D311461846224600F023
:1001A0003FF82D1A67EB01084F4622460120002137
:1001B00000F036F817EB00094E41201EA4F10104AF
:1001C000DFDC484631462A464346BDE8F09F00F052
:1001D000004230F000400AD0C10D01F56071C0F35B
:1001E000160042EA0151C20840071143704700203F
:1001F0000146704730B50B460146002020220124FD
:1002000009E021FA02F59D4205D303FA02F5491BE4
:1002100004FA02F52844151EA2F10102F1DC30BDFA
:10022000202A04DB203A00FA02F1002070479140B6
:10023000C2F1200320FA03F3194390407047202AAB
:1002400004DB203A21FA02F00021704721FA02F380
:10025000D040C2F1200291400843194670472DE971
:10026000FE4F804681EA0300C00F0C46009021F04B
:10027000004123F00045B8EB0200A94105D24046F9
:10028000214690461C460B46024623F00040104390
:1002900047D0270DC7F30A00C3F30A510290401A52
:1002A000019040286BDAC3F3130040F4801B0098E0
:1002B000924620B10023D2EB030A63EB0B0B0198AB
:1002C0005946C0F140025046FFF7AAFF06460D46C8
:1002D00050465946019A00F08DF910EB0800614133
:1002E000002487EA115284EAE7731A4340D0009A47
:1002F00062B3019A012A4FEA075215DC001B61EB39
:1003000002014FF0004202EA0752CDE90042001C10
:1003100041F5801132462B4600F08DF903B0BDE85F
:10032000F08F40462146F9E7001B61EB0201001CFB
:1003300041F5801300185B412018A2F5001747EB28
:10034000030140EAD570B6196D4111E06D084FEA1E
:10035000360645EAC0754FEA0752001B61EB020101
:10036000001C41F5801149084FEA30000019514145
:1003700032462B4603B0BDE8F04F00F04DB900986F
:10038000012240000023D0EB020263EBE0730098EF
:1003900021464FEAE074B8EB000061EB0401E9E7A5
:1003A00083F000435BE781F0004158E72DE9FE4F01
:1003B00081EA030404F0004421F0004100944FF06E
:1003C000000B23F0004350EA01045ED052EA03041C
:1003D0005BD0C3F30A54C1F30A552C44A4F2F3349E
:1003E0000194A0FB0254C1F3130141F48011C3F343
:1003F000130343F4801301FB024400FB034E840A01
:10040000970A44EA815447EA8357A4FB0768029598
:100410008D0A05FB07854FEA932C04FB0C54270536
:10042000029D4FEA065847EA1637B5EB08056EEB12
:10043000070C870E920E47EA811742EA8312A7FB48
:100440000201B6EB0B0164EB00042B0D43EA0C3305
:100450005E1844EB1C50DA465146E7FB0201C5F337
:1004600013044FEA0B3343EA14534FEA0432019C5E
:1004700043EA0603A4F10C040294009CCDE900B405
:1004800000F0D9F803B0BDE8F08F00200146F9E78D
:100490002DE9F04D81EA030404F0004B21F0004502
:1004A00014464FF0000A23F0004150EA050220D024
:1004B00054EA01021DD0C5F30A570246C5F31303DF
:1004C000C1F31300C1F30A5640F4801543F48013BE
:1004D000A7EB0608101BD64608F2FD3873EB0500A3
:1004E00002D308F1010801E092185B41B8F1000F56
:1004F00003DA00200146BDE8F08D00204FF48011A2
:10050000064684460EE0171B73EB050705D3121B46
:1005100063EB050306434CEA010C49084FEA30003F
:1005200092185B4150EA0107EDD152EA030012D064
:1005300082EA040083EA0501084305D0101BAB41A1
:1005400006D20122002306E000224FF0004302E021
:100550006FF0010253101AEB06004CEB085110EB40
:100560000A0041EB0B01BDE8F04D00F055B8C1F3B6
:100570000A52C1F3130140F2FF3341F480119A4251
:1005800002DA00200146704740F233439A42A2F259
:10059000334202DC5242FFF752BEFFF741BE000079
:1005A00030B5041E71F1000404DB4FF000444042FA
:1005B00064EB0101141E73F1000405DB1C464FF0CF
:1005C0000043524263EB0403994208BF904230BD9E
:1005D000064C074D06E0E06840F0010394E8070090
:1005E00098471034AC42F6D3FFF7A6FD7C340008E0
:1005F0009C340008202A06DBCB17203A41FA02F08F
:1006000043EAE07306E041FA02F3D040C2F120026F
:10061000914008431946704710B5141E73F1000449
:1006200008DA401C41F1000192185B411A4301D1E4
:1006300020F0010010BD2DE9F04D92469B4611B10E
:10064000B1FA81F202E0B0FA80F220329046FFF770
:10065000E7FD04460F4640EA0A0041EA0B01534613
:100660005A46084313D0114653EA010019D0C8F185
:1006700040025046FFF7E3FD05460E4650465946F8
:100680004246FFF7CDFD084305D0012004E0204697
:100690003946BDE8F08D0020054346EAE0762C435C
:1006A00037430A986305E40AA0EB08000022FD0A1C
:1006B00044EA47540A3002D500200146E9E7010523
:1006C00010196941DDE9084500196941BDE8F04D9F
:1006D000A2E700BFFEE7000010B502220021064895
:1006E00001F02CFC38B102220021034801F01EFC6D
:1006F00001200249087010BD0000024010000020D7
:10070000704700BFFEE700BFFEE700004020014940
:10071000086070471018014010B5044622460121B8
:10072000880702F080FC10BD10B504462246022165
:10073000480702F078FC10BD10B50446224603219C
:100740004FF0804002F06FFC10BD704710B50028DC
:1007500007DA0A07140E054A00F00F031B1FD454D2
:1007600003E00A07130E024A135410BD18ED00E00F
:1007700000E400E070470000F0B52DED068B85B079
:1007800007460D461646B0EE408AF0EE608A002419
:10079000002F4FD040F6B830854200DD054627488F
:1007A0000088A84215DA012E13D12548234909886B
:1007B00000EB810080ED008A22482049098800EB87
:1007C0008100C0ED008A1D480088401C1B4908803C
:1007D00030E01A48008800282CDD022E2AD10020A3
:1007E000164908800026002422E0164800EB840009
:1007F00090ED000A10EE101A0846FFF7E8FC41ECF5
:10080000190B0F4800EB840090ED000A10EE101A4F
:100810000846FFF7DCFC41EC1A0B8DED029B53EC14
:100820001A2B214608A0009400F008F9601C84B23D
:10083000AC42DADB05B0BDEC068BF0BD2400002035
:10084000E0000020C02F00200D0A20615B25645DC0
:10085000203D2025662C20625B25645D203D2025FF
:1008600066200D0A000000007047000010B501F07E
:1008700003FA03480068401C0149086010BD0000ED
:10088000180000201CB54E48006840F470004C4928
:1008900008604C48006840F001004A49086000BF09
:1008A0004848006800F002000028F9D04548406838
:1008B00000F00C00082866D100BF0020019002E083
:1008C0000198401C019001985028F9D33D48406898
:1008D0000090009820F0F0000090009840F0800018
:1008E00000903849009848600020019002E001988B
:1008F000401C019001985028F9D33248406800907C
:10090000009820F0F0000090009840F090000090D7
:100910002C49009848600020019002E00198401C9A
:10092000019001985028F9D326484068009000981B
:1009300020F0F0000090009840F0A00000902149C5
:10094000009848600020019002E00198401C01904E
:1009500001985028F9D31B4840680090009820F077
:10096000F0000090009840F0B00000901549009809
:1009700048600020019002E00198401C019001981D
:100980005028F9D300BF0F48406820F003000D49FC
:100990004860C82000F0ADFF0A4800680A490840D6
:1009A000084908604FF41F0088600846006820F47A
:1009B0008020086000204860C86202F0EFF81CBD8B
:1009C00088ED00E000100240FFFFF6FE10B50D4973
:1009D0000D4802F013FD98B10B4802F093FCC1B230
:1009E0000A4802880088401C084B18800848815437
:1009F00018460088022803DB0249034802F0F5FC90
:100A000010BD000005030500003801401E00002055
:100A1000D600002010B50446204601F0A9FB0022B4
:100A20001146252001F0AEFE40F20531014802F0EA
:100A3000CFFC10BD0038014000BFFEE70FB4054BEE
:100A400010B503A9044A029800F0D0FB10BC5DF871
:100A500014FB00004D210008C400002041000802E2
:100A600018BF04200A0E18BF40F001004FF07F426B
:100A700032EA010108BF40F00200012808BF05204A
:100A80007047000070B54FF068422DED048BF0EE1A
:100A9000408A18EE900AB0EE608A18EE101A02EB47
:100AA0004003B3F1654F3CBF02EB4102B2F1654F29
:100AB0007DD200BFC0F3C753C1F3C7529A1A1B2A95
:100AC00009DD10F0004F14BF9FED830A9FED830AEC
:100AD000BDEC048B70BD12F11A0F36DA11F0004F25
:100AE00009D010F0004F0CBF9FED7D0A9FED7D0AED
:100AF000BDEC048B70BD88EE889A19EE100AFFF7E2
:100B0000ADFF042808BF00F0E7F918EE900AFFF7E0
:100B1000A5FF054618EE100AFFF7A0FF044619EEE0
:100B2000100AFFF79BFF042D18BF052D08D1042CD8
:100B300018BF052C04D1002804BF022000F08EFA53
:100B4000B0EE490ABDEC048B70BD4200B2EB410F20
:100B50003AD910F0004F19BFDFED630A9FED630A29
:100B6000DFED630A9FED630AB0EE481A0A46B1EE64
:100B7000688A80F00041F0EE418A10460A1A52005D
:100B8000B2F1807F34D2484010F0004FDFED5A1AA6
:100B90009FED5A2A1DBFBEEE001A70EEE10A30EE3C
:100BA000420AB6EE001A08BF70EEA10A00E040E06B
:100BB00008BF30EE020AB0EE682A01EE482A08EEBD
:100BC000818AC2EE081A15E011F0004F04BF9FEDB4
:100BD0004C0AF0EE400AD1D010F0004F19BFDFED03
:100BE000490A9FED490ADFED490A9FED490AC5E729
:100BF000C8EE881A21EEA11A9FED462ADFED462A9B
:100C000041EE022A9FED452A01EE222ADFED442A19
:100C100041EE022A9FED432ABDEC048B01EE222A0D
:100C200021EE811A01EE020A30EE210A30EE200A8E
:100C300070BD4FF07F42B2EB400F28BFB2EB410FC7
:100C400009D2F0EE480AB0EE680ABDEC048BBDE8AC
:100C5000704000F035B940EA01035B0008BF41F085
:100C6000FF410BD0B2EB400F08BFB2EB410F08D1F0
:100C700020F0804008EE900A21F0804108EE101A22
:100C800018E7B2EB400F12BF5FEA410340F0FF40AC
:100C900001F000413FF40EAFB2EB410F12BF5FEA2B
:100CA000400200F0004041F0FF413FF403AF4A0032
:100CB00092EA40033FF5FEAE002AACBF9FED1A0A50
:100CC0009FED1A0A68EE808A28EE008A18EE900AD4
:100CD00018EE101AEEE60000DB0FC9BFDB0FC93FAC
:100CE000DB0F4940DB0F49C00000C9BF22AAFDB994
:100CF0000000C93F22AAFD390060ED3EC30ACE378D
:100D000000000000000049C022AA7DBA000049404E
:100D100022AA7D3A2DAD65BD8FB8D53D0FB511BE68
:100D200061C84C3EA8AAAABE0000804F0000802FD8
:100D300010EE101A08B5444A6846B2EB410F28D9A4
:100D40004FF0E640B0EB410F94BF00204FF0FF3072
:100D500000900098002861DB60EE000A10F0010F9F
:100D600045D010F0020FDFED391A9FED391A00EE71
:100D7000E11ADFED381A40EE811A21EEA01AF0EEEA
:100D8000400A40EE010A08BFF1EE600AB0EE600AC8
:100D900008BD314B21F0004293423CD911F0004F85
:100DA000DFED2E0A20EE201ADFED2D0A19BF31EEFD
:100DB000601A71EE200A31EE201A71EE600ABDEE63
:100DC000E01A11EE100A9FED271A00F0030000EE62
:100DD000C10A9FED251A009000EEC10A9FED231A6B
:100DE00000EEC10A9FED221A00EEC10AB1E79FEDA5
:100DF000211A9FED210A10F0020F00EE810A9FEDEB
:100E00001F1A00EE801AB7EE000A00EE810A18BF22
:100E1000B1EE400A08BD00F067F89AE710EE100A3C
:100E20004000B0F17F4F3CBFB7EE000A08BD07D1CC
:100E30004FF0010000F012F9BDE8084000F044B89E
:100E4000BDE8084000F039B8B61F927E336D4C39CA
:100E5000DA82083CA0AA2ABE490E494683F9223FFD
:100E60000000004B0000C93F00A0FD390020A23364
:100E70001A61342CB93AB2BACA9F2A3DDDFFFFBECF
:100E800010B52DED028BB1EEC08A18EE100A20F0DD
:100E90000040C0F1FF40C00F0AD010EE100A20F051
:100EA0000040C0F1FF40C00F04BF012000F0D6F8A1
:100EB000B0EE480ABDEC028B10BD30EE000A704760
:100EC00030EE200A70470000DFED020A80EEA00A33
:100ED00070470000000000009FED020A20EE000AAB
:100EE00070470000000000102DE9F0014FF07F4234
:100EF000B2EB410F9FBF4FF0FF310160BDE8F00141
:100F000070474FF0004242EA0123C1F3C752783ADA
:100F1000551112F01F0C434CCCF120067C44C1F358
:100F2000C752A2F178024FEA621204EB820254F82F
:100F3000254008BFD2E9015612D0556804FA0CF4D6
:100F400025FA06F73C43976805FA0CF527FA06F8E8
:100F5000D26807FA0CFCF24045EA08054CEA0206A2
:100F6000A4FB034CA5FB0352A6FB03631D449D4257
:100F700034BF012600261319334416B1934202D917
:100F800003E0934201D2012200E00022624402F118
:100F9000200C9206DC0C42EA443200EE102A5B037D
:100FA000DFED210AF8EEC01A00EE103A4FEA9C1C61
:100FB00011F0004FB8EE400AC0F800C020EE201A31
:100FC00000EE105ADFED190AB8EE400A20EE200AB2
:100FD00071EE810A70EE800A10EE902A02F500622E
:100FE0006FF30B0200EE902A70EEE11A31EEC11A97
:100FF000DFED101A30EE411A9FED0D0A20EE800A47
:1010000001EE210A9FED0C1A00EE810A04BFBDE833
:10101000F0017047CCF180510160BDE8F001B1EE04
:10102000400A70473C250000000000360000802C7C
:1010300022AAFD29DB0FC92F0000C92F02E008C832
:10104000121F08C1002AFAD170477047002001E042
:1010500001C1121F002AFBD170470000014908603E
:1010600070470000C80000202DE9FF5F82B000211A
:10107000DDE90430020DDDF840B0034318D044F63A
:101080001050A2F2FF3242431514119801281FD0CC
:10109000A5EB0B00401C5FEA000A4FF000064E4F24
:1010A000DFF83891B046504615D5CAF1000413E078
:1010B000119801244AA3012801D16FEA0B0102987B
:1010C000119AC0E90031C0E9024206B0BDE8F09FC4
:1010D000CBF10000DFE704460021404A491842EB0B
:1010E0000450CDE9001012E0E00707D032463B463D
:1010F00040464946FFF75AF98046894632463B4604
:1011000010461946FFF752F906460F466410002CA8
:10111000EAD1DDE90401DDE90023BAF1000F06DAC6
:10112000FFF744F942464B46FFF740F905E0FFF769
:10113000AFF942464B46FFF7ABF904460E46002294
:10114000284BFFF72DFA03D84FF0FF30014607E098
:101150000022254B20463146FFF781F8FFF707FABA
:10116000102409E0002C0ADB0A220023FEF7FEFF10
:10117000039B30321A55641E50EA0102F2D1641CFE
:10118000039AC4F111031444119A012A03D00122D5
:1011900008430DD10AE0084304D000204FF0110BA2
:1011A000119072E7A3EB0B056D1E0DE05B4504DDAE
:1011B0004FF0000205F1010504E003DA4FF00002F0
:1011C000A5F10105002AECD002981199C0E902317D
:1011D000C0E9004579E70000000014400000F03F3E
:1011E000300000000000F0430000E03F2DE9FF4F19
:1011F00095B09A46884606460025EEE1252877D127
:1012000000242746F94A0121039400E0044316F81C
:10121000013F203B01FA03F01042F7D130782A2831
:1012200011D06FF02F033078A0F13002092A16D8C0
:10123000039A44F0020402EB820203EB42021044E0
:10124000761C0390EFE758F8042B0392002A03DA88
:10125000504244F40054039044F00204761C307869
:101260002E2816D116F8010F44F004042A280DD0B8
:101270006FF02F023078A0F13003092B09D807EB6B
:10128000870302EB4303C718761CF3E758F8047B87
:10129000761C30786C280FD006DC4C2817D06828D4
:1012A0000DD06A2814D104E0742810D07A280FD108
:1012B0000DE044F400140AE044F4801401E044F426
:1012C00040147278824202D104F58014761C761C98
:1012D000307866280BD013DC582877D009DC00283A
:1012E00075D04528F6D04628F4D047281AD193E186
:1012F00018E0632835D0642879D0652812D18BE1B5
:10130000702873D008DC6728F1D069286FD06E2868
:101310000DD06F2806D1ACE073282CD0752874D07E
:10132000782853D05246179990476D1C54E1C4F366
:101330000250022809D003280DD0D8F80010042844
:101340000DD00D6008F1040846E1D8F80010EA1746
:10135000C1E90052F6E7D8F800100D80F2E70D70F1
:10136000F0E718F8041B8DF8001000208DF801003C
:10137000EB46012003E058F804BB4FF0FF30610753
:101380004FF0000102D40DE009F101018946B94294
:101390000FDA8145F8DB1BF809100029F4D108E0C9
:1013A00009F1010189468142FADB1BF80910002985
:1013B000F6D103985346A0EB090721463846179A01
:1013C00000F080FA284400EB090507E044E008E15A
:1013D0000DE01BF8010B524617999047B9F101092E
:1013E000F7D2534621463846179AF2E039E00A21EF
:1013F000C4F302524FF0000B0091022A06D058F8B5
:10140000040BC117032A09D00AE023E008F1070002
:1014100020F00702F2E80201904605E000B2C11791
:10142000042A01D140B2C117002906DA0A46002178
:10143000404261EB02012D2202E0220504D52B225D
:101440008DF80420012203E0E20701D02022F7E713
:10145000914657E00A2100E010214FF0000B009167
:101460000BE010214FF0000B44F00404082700911A
:1014700003E008204FF0000B0090C4F30252022A50
:1014800005D058F8040B0021032A08D008E008F121
:10149000070020F00702F2E80201904603E080B264
:1014A000042A00D1C0B24FF0000922072AD53278B1
:1014B000702A07D0DDF800C08CF0100C5CEA0B0C31
:1014C00005D00EE040228DF80420012208E050EA09
:1014D000010306D030238DF804308DF80520022258
:1014E0009146009B83F0080353EA0B030AD150EAAC
:1014F000010201D1620705D530228DF804204FF09A
:1015000001097F1E3278582A04D039A20C920CAA05
:1015100002920BE03BA2F9E75B46009AFEF726FE3B
:101520000C9B9B5C029A521E0292137050EA0102BD
:10153000F2D1029804A9081A00F1200B600702D525
:1015400024F4803400E001275F4502DDA7EB0B00A7
:1015500000E0002000EB0B01009003984944401A82
:101560000390E00306D453462146179A039800F0EF
:10157000A9F90544002706E001A85246C05D179965
:1015800090476D1C7F1C4F45F6DBE0030CD553469E
:101590002146179A039800F095F9054404E030209D
:1015A0005246179990476D1C0099481E00900029DB
:1015B000F5DC08E00298029952460078491C029135
:1015C000179990476D1CBBF10001ABF1010BF1DCE9
:1015D0005BE100F065F90544761C307800287FF463
:1015E0000DAE19B02846BDE8F08F000009280100B3
:1015F0003031323334353637383961626364656689
:10160000000000003031323334353637383941424A
:101610004344454600000000600700D4062708F157
:10162000070020F00700F0E80223804603F0004C9A
:101630005FEA0C0001D097A009E0200501D596A033
:1016400005E0E00701D095A001E0AFF24C00139057
:10165000307823F0004365280CD006DC452809D0FB
:1016600046281DD047287FD13BE0662818D0672840
:101670007AD136E00021112F01DB112000E0781C27
:10168000CDE9000104A90CA8FFF7EEFCDDE90D018E
:101690000C9A4FF0000B07F10109109200914EE0F7
:1016A0004FF000400097CDE9011004A90CA8FFF706
:1016B000DBFCDDE90D020C9B0F994FF0000B91460E
:1016C0001093009211B9791C00EB0109B7EB0900E6
:1016D00003D4C0F1FF3B07F10109A9EB070001901A
:1016E00042E0012F00DA01270021112F01DD112036
:1016F00000E03846CDE9000104A90CA8FFF7B4FCCE
:10170000DDE90D010C9A00914FF0000BB9461092E3
:1017100021070FD4009A4A4503DA914601E0A9F166
:101720000109B9F1010F05DD109AA9F10101515C20
:101730003029F4D0B84202DA10F1040F03DA0121A3
:10174000CDE9011010E0002803DC8344A9EB00017F
:1017500002E0411C494500DD8946A0EB0B00401C1E
:1017600001904FF000400290200705D401984845B1
:1017700002DB4FF0FF30019000208DF84B00029803
:101780000DF14B07B0F1004F25D002200C902B201B
:101790000D90029800280CDA404202902D200D9006
:1017A00007E00A210298FEF725FD3031029007F884
:1017B000011D0C99481E0C900029F2DC02980028AB
:1017C000EFD1791E0D980870307800F0200040F0BD
:1017D000450007F8020D11A8C01BC01D0290139808
:1017E000007800B1012000EB0901019801EBE071E4
:1017F000029801440398401A401E0390E00306D467
:1018000053462146179A039800F05CF80544139854
:10181000007818B15246179990476D1CE00323D504
:1018200053462146179A039800F04CF805441BE0F4
:10183000BBF1000F07DB0098584504DD109817999D
:1018400010F80B0001E0179930205246904701989C
:101850000BF1010B401E05F10105019004D12E2072
:101860005246179990476D1CB9F10001A9F1010981
:10187000DEDC05E017F8010B5246179990476D1C06
:101880000299481E02900029F4DC53462146179A1B
:1018900003989EE62D0000002B00000020000000B1
:1018A0002DE9F041044600251E461746880404D45D
:1018B00005E039462020B0476D1C641EF9D5284646
:1018C000BDE8F0812DE9F041044600251E46904612
:1018D000C80301D5302700E02027880404D505E09F
:1018E00041463846B0476D1C641EF9D52846BDE810
:1018F000F08108B50021009102E00099491C009197
:1019000000EB8001009AB2EB410FF6D308BD81686D
:1019100041F00801816000BF816801F008010029E1
:10192000FAD1816841F00401816000BF816801F053
:1019300004010029FAD1704730B5012902D00229EB
:101940001AD10CE0C36A23F47003C362C36A541E45
:101950004FF4700505EA04542343C3620DE0836B22
:1019600023F440138363836B541E4FF4401505EA40
:1019700004542343836300E000BF00BF30BD000078
:1019800010B500F0B7F902220021054800F0B5FAC1
:10199000002211460B2000F0F5FE00F067FD10BD9F
:1019A0000000024021B1826842F40062826003E0DC
:1019B000826822F4006282607047000010B504461D
:1019C0001348204430B1B0F5806F0CD0B0F5C05F43
:1019D0001BD111E040F2093001F042F840F2093029
:1019E00001F02EF812E040F20A3001F039F840F22E
:1019F0000A3001F025F809E040F20F3001F030F82C
:101A000040F20F3001F01CF800E000BF00BF10BD35
:101A100000DCFEBF816841F480718160704781689D
:101A200001F0010119B9816841F00101816070473D
:101A300072B101F001031BB1836843F4801383602A
:101A400001F0020393B1836843F4004383600DE027
:101A500001F001031BB1836823F48013836001F05C
:101A600002031BB1836823F400438360704701299C
:101A700002D0022910D107E0836823F46023836039
:101A800083681343836008E0836823F4E043836042
:101A900083681343836000E000BF00BF704700000D
:101AA0000549096821F47021034A1160114609684B
:101AB000014311607047000004240140F0B51D4649
:101AC00006290CD2436B01EB81071F26BE40B343AE
:101AD00001EB810602FA06F63343436322E00C2948
:101AE0000ED2036B8E1F06EB86071F26BE40B34344
:101AF0008E1F06EB860602FA06F63343036311E0F7
:101B000010290FD2C36AA1F10C0606EB86071F2627
:101B1000BE40B343A1F10C0606EB860602FA06F6B8
:101B20003343C3620A2A0CD2046902EB4207072638
:101B3000BE40B44302EB420605FA06F634430461A4
:101B400011E0122A0FD2C468A2F10A0606EB46077A
:101B50000726BE40B443A2F10A0606EB460605FA84
:101B600006F63443C460F0BDAAB101F480731BB122
:101B7000436843F48073436001F480631BB143689E
:101B800043F48063436001F00203CBB1836843F008
:101B90000203836014E001F480731BB1436823F4F3
:101BA0008073436001F480631BB1436823F4806356
:101BB000436001F002031BB1836823F002038360DA
:101BC000704780ED000A80ED010A002181607047B6
:101BD000F0EE400A90ED000A30EEC00AB0EE401A76
:101BE0009FED120AB4EEC01AF1EE10FA03DD81681F
:101BF000491E816009E09FED0E0AB4EEC01AF1EEB5
:101C000010FA02D28168491C8160C0ED000A90ED93
:101C1000020AF8EEC01A9FED072AB0EE600A01EE44
:101C2000820A80ED010A90ED010A7047DB0F4940FE
:101C3000DB0F49C0DB0FC940F0EE401AF4EEE01AAA
:101C4000F1EE10FA02D2B0EE600A7047F4EEC11A5B
:101C5000F1EE10FA02DDB0EE410AF6E7B0EE610AED
:101C6000F3E700000349086000BF02490968002942
:101C7000FBD17047140000200448006820B10348DD
:101C80000068401E014908607047000014000020F1
:101C900070B505460C462146284600F091F908B972
:101CA00000BFFEE704EB8400810005F10800405806
:101CB00040F0010104EB8400820005F1080081502E
:101CC00070BD70B505460C462146284600F078F9EF
:101CD00008B900BFFEE704EB8400810005F10800AD
:101CE000405840F0200104EB8400820005F1080018
:101CF000815070BD00B587B04FF4A06000F090FE39
:101D00000021134800F02AF81248009000208DF8B6
:101D100018001148029001208DF81900400201902E
:101D20008000039000208DF81A0002200490000328
:101D300005906A460021064800F048F80021044852
:101D4000FFF7BFFF00210248FFF7A2FF07B000BD69
:101D5000000002404C240140AC00002070B5044655
:101D60000D462946204600F02BF908B900BFFEE7D2
:101D700005EB8500810004F10800405820F00101C6
:101D800005EB8500820004F108008150002105EB7D
:101D90008500820004F10800815005EB8500820077
:101DA00004F10C00815005EB8500820004F1100065
:101DB000815005EB8500820004F1140081506068B9
:101DC000AA000F2191400843606070BD2DE9F041E9
:101DD00004460D4616462946204600F0F1F808B99B
:101DE00000BFFEE705EB8500820004F110003168BA
:101DF000815005EB8500820004F11400B168815028
:101E0000308A81B205EB8500820004F10C0081501C
:101E100005EB8500810004F10800475827F47C5742
:101E2000F1687068084371690843074305EB850052
:101E3000810004F108004750307E01280ED105EBE7
:101E40008500810004F10800405840F0400105EB96
:101E50008500820004F1080081500DE005EB85004B
:101E6000810004F10800405820F0400105EB850096
:101E7000820004F108008150707E01280ED105EB2C
:101E80008500810004F10800405840F0800105EB16
:101E90008500820004F1080081500DE005EB85000B
:101EA000810004F10800405820F0800105EB850016
:101EB000820004F108008150B07E70B905EB850006
:101EC000810004F10800405820F0100105EB850066
:101ED000820004F1080081500DE005EB85008100CF
:101EE00004F10800405840F0100105EB8500820025
:101EF00004F108008150BDE8F08170B504460D463C
:101F000016462946204600F05BF808B900BFFEE7F8
:101F100005EB8500810004F108004058304305EBD3
:101F200085018A0004F10801885070BD10B543682E
:101F30008C0002FA04F42343436010BD70B50346DD
:101F400000BF00BF022A04D0042A11D0082A2DD1D4
:101F50001DE018688E0002FA06F600EA060501EB9D
:101F60008100860003F10800805900F002041FE0A0
:101F700018688E0002FA06F600EA060501EB8100F9
:101F8000860003F10800805900F0040410E018688E
:101F90008E0002FA06F600EA060501EB81008600D3
:101FA00003F10800805900F0080401E000BFFEE7DB
:101FB00000BF15B10CB1012070BD0020FCE700008E
:101FC00002460120034B9A4202D1042900DD002081
:101FD000704700000004024070B52DED068BB0EE96
:101FE00040AA544890ED000AFEF7A2FE5248D0EDF8
:101FF000000A20EE200AF0EE408A4E48D0ED000A9A
:102000009FED4E1A70EEC10AB0EE600AFEF790FE28
:102010004948D0ED000A20EE200AB0EE409A45482B
:10202000D0ED000A9FED451A70EE810AB0EE600A0D
:10203000FEF77EFE4048D0ED000A20EE200AF0EECA
:10204000409A3F48007800EE100AB8EE400AF0EEE1
:10205000000A80EE201AB0EE418A78EE880AB0EECF
:10206000600A3748007800EE900AB8EE601ADFED9B
:10207000350AFFF7E1FDF0EE408A79EE080AB0EE8E
:10208000600A2F48007800EE900AB8EE601ADFED83
:102090002D0AFFF7D1FDB0EE409A79EE880AB0EE36
:1020A000600A2748007800EE900AB8EE601ADFED6B
:1020B000250AFFF7C1FDF0EE409A2148007800EEB6
:1020C000100AF8EE400A88EEA00ADFED1F0A20EEA3
:1020D000200ABCEEC00A10EE104A1948007800EE43
:1020E000100AF8EE400A89EE200ADFED170A20EE0A
:1020F000200ABCEEC00A10EE105A1148007800EE1B
:10210000100AF8EE400A89EEA00ADFED0F0A20EE71
:10211000200ABCEEC00A10EE106AA0B2FEF7FCFA6C
:10212000A8B2FEF701FBB0B2FEF706FBBDEC068BD2
:1021300070BD0000BC000020B8000020A60A0640C8
:10214000B40000200000000000007F4370B504468A
:102150000D46E1B2054801F0DAF800BF0721034857
:1021600001F027F90028F9D0204670BD0038014061
:1021700070B5054600241D48854200D103E01C4887
:10218000854200D101241B4931F8140000F048FCBD
:10219000194931F8140000F043FC184951F8243073
:1021A000174951F824000322182100F001F91549BC
:1021B00051F82430124951F824000322042100F080
:1021C000F7F8284601F0A8F84FF4E131284601F06D
:1021D00051F80421284601F02DF90821284601F084
:1021E00033F9284601F0E0F870BD000000380140E6
:1021F00000440040680000204C00002050000020F7
:10220000600000205800002080ED000AF6EE001A61
:10221000B0EE601A01EE801ADFED031A21EE211AEA
:1022200081ED001A704700003ACD933F30B52DED97
:10223000068B83B0F0EE409AB0EE609A05460C46ED
:10224000B0EE690A284600F0B1F9B0EE40AAB0EE4F
:10225000490A204600F0AAF9F0EE40AA01A902A816
:10226000F0EE6A0AB0EE4A0AFFF7CEFFDDED020A91
:1022700060EEA00A9DED011ADDED011A41EE210A82
:10228000B0EE600AFEF7FCFDF0EE408A9FED1C0AFE
:10229000F4EEC08AF1EE10FA0BDD9DED020AC0EEFD
:1022A000280ACDED020A9DED010AC0EE280ACDED07
:1022B000010ADDED010A9DED020AFEF7E3FBB0EE37
:1022C000408AB5EEC08AF1EE10FA05D29FED0D0AF4
:1022D00038EE000AB0EE408A9FED0A0AB4EEC08ADA
:1022E000F1EE10FA05DB9FED070A38EE400AB0EE7A
:1022F000408AB0EE480A03B0BDEC068B30BD00004A
:102300006F12833ADB0FC94070B52DED048BF0EEF0
:10231000408AB0EE609A04460E4615463146204685
:10232000F0EE490AB0EE680AFFF780FFF0EE409A3F
:10233000B0EE690A2846FFF74BFCB0EE408A94EDF8
:10234000040A20EE080A054880ED000A80ED008AA4
:1023500090ED000ABDEC048B70BD0000BC000020B5
:1023600010B540F2026000F05BFB40F2026000F04A
:1023700057FB40F2066000F053FB40F2066000F0AD
:102380004FFB0E2303221821074800F011F84023C9
:1023900003221021054800F00BF8402303221021EE
:1023A000024800F005F810BD000801400018014087
:1023B000F0B5044616460025002201F00F0501F095
:1023C000100747B1042E05D145F00305E76B1F4305
:1023D000E76300E0354300201EE0012787401F40EF
:1023E000C7B122684FEA800C0F2707FA0CF7BA43EF
:1023F000870005FA07F73A43282904D101278740C7
:102400001F40676105E0482903D1012787401F402D
:1024100027612260471CB8B20828DED3082022E0DA
:10242000012787401F40E7B16268A0F108074FEA23
:10243000870C0F2707FA0CF7BA43A0F10807BF0073
:1024400005FA07F73A43282904D1012787401F409E
:10245000676105E0482903D1012787401F402761B4
:102460006260471CB8B21028DAD3F0BD10B540F254
:10247000046000F0D5FA40F2096000F0D1FA40F2B1
:102480000A6000F0CDFA2223042200213048FFF731
:102490008FFF3048FFF792FA4FF4C020FFF700FBA0
:1024A000012211022B48FFF75FFB012211022A488B
:1024B000FFF75AFB00212748FFF774FA002126484E
:1024C000FFF770FA012211462248FFF735FA012280
:1024D00011462148FFF730FA05230B2200211D4841
:1024E000FFF7ECFA05230F2200211B48FFF7E6FA5D
:1024F0004FF4002201211748FFF7B9FA4FF4602288
:1025000001211548FFF7B3FA012211461148FFF7E0
:102510008FFA012211461048FFF78AFA022000F0D4
:102520009DF90C48FFF77BFA0120FFF79BFB094858
:10253000FFF7EDF90848FFF772FA0120FFF792FB69
:102540000548FFF7E4F90348FFF764FA10BD0000FF
:102550000010014000240140002801401FB540F256
:10256000017000F05DFA104800F0A4FD684600F02C
:1025700075FE41F26F70ADF800000020ADF802006A
:10258000ADF80400012002900020ADF80600694675
:10259000054800F003FE2021034800F04BFE0248EE
:1025A00000F0F6FD1FBD000000040040F0EE400A00
:1025B000017E11B99FED050A704790ED000A30EEDB
:1025C000C01AD0ED011A81EE210AF5E700000000E3
:1025D0009FED180A80ED020A9FED170A80ED030AAD
:1025E0009FED160A164981ED000A9FED160A81ED4E
:1025F000010AB1EE000A81ED040A9FED130A81ED94
:10260000050A01210E4A11769FED100A104981ED4D
:10261000000A9FED100A81ED010AB1EE000A81ED7A
:10262000040A9FED090A81ED050A0121084A117685
:1026300070470000002474C9002474490080FE44DF
:10264000A05E002000409D44E66C703F0000FF4407
:10265000BC5E002000C0A244002400F0A3FAFFF7F3
:102660007FFE3148FEF7D6F9FFF778FFFFF788F9CC
:102670002E48FFF7ADFF9FED2E0A2E48FFF7A1FA77
:10268000FEF744F8C820FFF7EDFA00F00CFD4AE031
:102690002948008801280DDD284804784078284919
:1026A000087008460278214626A0FEF7C7F90020E8
:1026B000214908802D480078A8B300202B490870D4
:1026C0002B48008880B200EE100AB8EE400A294874
:1026D00080ED000A264800684FF6FF7101EA1040BD
:1026E00000EE100AB8EE400A234880ED000A114AB5
:1026F00022490E48204BD3ED000A1E4B93ED000AF1
:10270000FFF702FE1E4890ED000AFFF765FCDFEDC3
:10271000080A1B4890ED000A0948027840F6B831D3
:102720000120FEF729F8B3E700380140A05E002041
:1027300000000000D85E00201E000020D60000200F
:10274000040000200D0A207365745F737065656472
:10275000203D20257820675F73746172745F666C1A
:102760006167203D2025640D0A0000001000002054
:10277000AC000020080000200C000020BC5E0020FF
:10278000BC0000202DE9F04103460D46164600240A
:102790000027A0462A48006800F4E060B0F5E06F2A
:1027A00003D100BF4FF0040830E02548006800F472
:1027B000E060B0F5C06F03D101274FF0030825E0BA
:1027C0001F48006800F4E060B0F5A06F02D1022756
:1027D000B8461BE01A48006800F4E060B0F5806F6E
:1027E00003D103274FF0010810E01548006800F4FA
:1027F000E060B0F5407F03D104274FF0000805E00A
:102800004FF4A06000F020F80227B846C7F104009A
:1028100005FA00F4C8F104010F20C8403040044319
:1028200024010848C45403F01F01012088405911B5
:10283000890001F1E021C1F80001BDE8F08100004C
:102840000CED00E000E400E002490143024A11609F
:10285000704700000000FA050CED00E0184B5968C5
:10286000184B1940164BDA6A22F000520C2820D27D
:10287000DFE800F0060708091F0C1F0D15161718D2
:1028800000BF00BF00BF41EA803113E000BF20F06D
:1028900004004FF0805343EA803319430AE000BF3D
:1028A00000BF00BF20F00C0041EA803142F000522E
:1028B00000E000BF00BF024B5960DA6270470000C1
:1028C00000100240FF3FFFEF2DE9F04F8CB00746AC
:1028D00000200A904AA090E8004CC068CDE905BEEF
:1028E000CDF810A007900FF21C1ADAE9000ACDE922
:1028F000020A0FF2101ADAE9000ACDE9000A444888
:102900004068C0F381000B900B9820B1012804D0DF
:1029100002283FD103E03F4A3EE03E4A3CE03C48CB
:10292000406800F4803CBCF5803F12D13848C06A52
:1029300000F08048B8F1000F01D1364B00E0364B73
:102940003348406800F40039B9F5003F02D15B0814
:1029500000E0324B2E484068C0F383412C48406869
:1029600000F0006008B141F010012948406800F013
:10297000804008B141F020010F2901D2891C06E0F6
:102980000F2903D33E2901D8491C00E03F2103FB56
:1029900001F201E01F4A00BF00BF1D484068C0F3BC
:1029A000031504A8465D22FA06F419484068C0F3EE
:1029B000022502A8465D24FA06F0099014484068F2
:1029C000C0F3C2251DF8056024FA06F0089037B15F
:1029D000012F06D0022F06D0032F0AD106E00A925B
:1029E00008E00A9406E009980A9003E008980A9023
:1029F00000E000BF00BF0A980CB0BDE8F08F0000F7
:102A0000000000000000000001020304060708099E
:102A10000010024000127A00006CDC0200093D0048
:102A2000064A02EB9011096800F01F0301229A4048
:102A30001143024B03EB90121160704700100240EB
:102A4000064A02EB9011096800F01F0301229A4028
:102A50009143024B03EB901211607047001002404B
:102A6000064A02EB9011096800F01F0301229A4008
:102A70001143024B03EB90121160704700100240AB
:102A800008B500200021414A126842F480323F4BD1
:102A90001A6000BF401C3D4A126802F4003119B9A7
:102AA0004FF6FF729042F5D1384A126802F40032B4
:102AB0000AB900BFFEE7354AD26942F08052334B73
:102AC000DA61334A126842F44042314B1A602F4AAD
:102AD00052682E4B5A601A4652685A601A4652681B
:102AE00042F480625A601A46526822F440325A60B8
:102AF0001A46526842F440325A601A465268254BD0
:102B00001A40224B5A601A465268234B1A431F4BF5
:102B10005A601A46126842F080721A6000BF1B4A5F
:102B2000126802F00072002AF9D0194A126842F4C1
:102B30008032174B1A6000BF154A526802F4803287
:102B4000002AF9D0124A126842F40032104B1A607F
:102B500000BF0F4A526802F40032002AF9D00B4A33
:102B600052680092009A22F003020092009A42F00A
:102B700002020092054B009A5A6000BF034A526855
:102B800002F00802002AF9D008BD0000001002403F
:102B900000700040FFFFC3B70000340810B5FFF716
:102BA0006FFF10BD10B5124800684FF47A71B0FB8A
:102BB000F1F4601EB0F1807F01D301200FE0601EB0
:102BC0004FF0E02148610F214FF0FF30FDF7BEFDCF
:102BD00000204FF0E021886107200861002008B143
:102BE00000BFFEE70021481EFDF7B0FD10BD00004C
:102BF0002800002000B587B040F20B60FFF710FFFF
:102C0000364800F057FA7720ADF800000020ADF804
:102C10000200ADF804004FF4807002900020ADF87F
:102C200006008DF80C0069462C4800F0B7FA012028
:102C3000ADF810000020ADF81200ADF81400ADF8AA
:102C40001600ADF81800ADF81A0004AA00212348B8
:102C500000F0C6F804AA0121204800F0C1F804AA37
:102C600002211E4800F0BCF8FA2200211B4800F0A7
:102C7000DAF9FA220121194800F0D5F9FA220221E5
:102C8000164800F0D0F960220021144800F09EF9A7
:102C900060220121114800F099F9602202210F48B9
:102CA00000F094F9002211460C4800F0CFF9002200
:102CB00001210A4800F0CAF900220221074800F069
:102CC000C5F90121054800F0BDFA044800F082F87A
:102CD000024800F05DFA07B000BD0000002C014082
:102CE00000B587B04FF4E060FFF79AFE4FF08040E8
:102CF00000F0E0F97720ADF800000020ADF8020008
:102D0000ADF804004FF4807002900020ADF806008A
:102D10008DF80C0069464FF0804000F03FFA01202A
:102D2000ADF810000020ADF81200ADF81400ADF8B9
:102D30001600ADF81800ADF81A0004AA01218807A2
:102D400000F04EF804AA0221480700F049F804AA4E
:102D500003214FF0804000F043F8FA220121880758
:102D600000F061F9FA220221480700F05CF9FA222A
:102D70000321500700F057F960220121880700F075
:102D800025F960220221480700F020F96022032182
:102D90004FF0804000F01AF900220121880700F06E
:102DA00055F900220221480700F050F900220321C2
:102DB0004FF0804000F04AF90121880700F042FA04
:102DC0004FF0804000F006F84FF0804000F0E0F94E
:102DD00007B000BD016841F080010160704700004C
:102DE00010B531B101293FD002297DD003297CD112
:102DF000BFE0036A23F001030362836923F0030346
:102E00008361036A148823430362036A23F0020385
:102E10000362036A9488234303626A4B984202D098
:102E2000694B98421FD1036A23F004030362036ACB
:102E3000548823430362036A23F008030362036A8E
:102E4000D48823430362436823F480734360436858
:102E5000148923434360436823F400734360436849
:102E6000548923434360ABE0036A23F010030362F9
:102E7000836923F440738361036A148843EA04136B
:102E80000362036A23F020030362036A948843EA1F
:102E9000041303624B4B984202D04B4B984226D10D
:102EA000036A23F040030362036A548843EA04136D
:102EB0000362036A23F080030362036AD48843EA4F
:102EC00004130362436823F48063436043681489F6
:102ED00043EA84034360436823F400634360436828
:102EE000548943EA840301E002E068E0436067E05C
:102EF000036A23F480730362C36923F00303C3618D
:102F0000036A148843EA04230362036A23F4007308
:102F10000362036A948843EA04230362294B9842BC
:102F200002D0294B984223D1036A23F480630362C1
:102F3000036A548843EA04230362036A23F40063A8
:102F40000362036AD48843EA04230362436823F4D8
:102F5000805343604368148943EA04134360436821
:102F600023F4005343604368548943EA04134360E5
:102F700026E0036A23F480530362C36923F4407399
:102F8000C361036A148843EA04330362036A23F4C7
:102F900000530362036A948843EA04330362094BD3
:102FA000984202D0084B984208D1436823F48043EA
:102FB00043604368148943EA8413436000E000BF20
:102FC00000BF10BD002C01400034014031B1012987
:102FD0000CD0022913D0032922D118E0836923F0F1
:102FE000700383618369134383611AE0836923F467
:102FF000E0438361836943EA0223836111E0C3698B
:1030000023F07003C361C3691343C36109E0C3695B
:1030100023F4E043C361C36943EA0223C36100E0D0
:1030200000BF00BF704731B1012906D0022906D088
:10303000032908D105E0426306E0826304E0C2632D
:1030400002E0026400E000BF00BF704731B1012917
:103050000CD0022913D0032922D118E0836923F070
:10306000080383618369134383611AE0836923F44E
:1030700000638361836943EA0223836111E0C369CA
:1030800023F00803C361C3691343C36109E0C36943
:1030900023F40063C361C36943EA0223C36100E010
:1030A00000BF00BF704710B5FFF7A4FDFFF718FE83
:1030B00010BD000010B504463349601A8C4244D05C
:1030C0000CDCB4F1804F1CD03048204410B3B0F574
:1030D000806F28D0B0F5006F52D12DE0B0F5806F31
:1030E0003CD0B0F58E3F03D0B0F5923F48D13EE0E2
:1030F00040F20B30FFF7B4FC40F20B30FFF7A0FCBE
:103100003FE04FF48060FFF7ABFC4FF48060FFF7C7
:1031100097FC36E040F20140FFF7A2FC40F201408C
:10312000FFF78EFC2DE040F20240FFF799FC40F2E1
:103130000240FFF785FC24E040F20340FFF790FCDB
:1031400040F20340FFF77CFC1BE040F20440FFF735
:1031500087FC40F20440FFF773FC12E040F20540A8
:10316000FFF77EFC40F20540FFF76AFC09E040F201
:103170000D30FFF775FC40F20D30FFF761FC00E009
:1031800000BF00BF10BD00000010004000FCFFBFEA
:10319000016841F001010160704700000A88826205
:1031A0001D4A90420ED0B0F1804F0BD01B4A904286
:1031B00008D01B4A904205D01A4A904202D01A4ABF
:1031C00090420BD1026822F07002026002684B88C4
:1031D0001A43026002688B881A4302608A68C262DE
:1031E000124A90420AD0124A904207D0026822F452
:1031F000407202600268CB881A430260064A90421D
:1032000002D0094A904201D10A7B0263426942F02E
:103210000102426170470000002C014000040040A0
:1032200000080040000C0040003401400010004045
:1032300000140040426822F07002426042680A4373
:1032400042607047012904D1426C42F4004242645A
:1032500003E0426C22F40042426470470021018086
:10326000418081804FF6FF7181600021C180017330
:10327000704700002DE9F04704460D460027B84688
:10328000B94600261D49601A8C421CD006DC1C4839
:10329000204470B1B0F5806F1FD10FE0B0F5806FA2
:1032A00016D0B0F56C4F18D10320FFF70DFB074681
:1032B00014E00220FFF708FB07460FE00220FFF7AB
:1032C00003FB07460AE00220FFF7FEFA074605E087
:1032D0000220FFF7F9FA074600E000BF00BF07EB46
:1032E0005500B0FBF5F64FF6F07006EA000806F060
:1032F0000F0948EA0900A060BDE8F087004C0040D3
:1033000000BCFFBF01464868C0F308007047C1F326
:10331000080242607047000010B504462049601A58
:103320008C4228D006DC1F48204490B1B0F5806F55
:1033300033D117E0B0F5806F26D0B0F56C4F2CD1AB
:1033400040F20E30FFF78CFB40F20E30FFF778FBB7
:1033500024E040F21140FFF783FB40F21140FFF7F9
:103360006FFB1BE040F21240FFF77AFB40F2124085
:10337000FFF766FB12E040F21340FFF771FB40F2EB
:103380001340FFF75DFB09E040F21440FFF768FBD4
:1033900040F21440FFF754FB00E000BF00BF10BD37
:1033A000004C004000BCFFBFC16841F40051C16047
:1033B000704710B5024602EB9110006801F01F043F
:1033C0000123A340184008B1012010BD0020FCE7F4
:1033D00010B500EB9112126801F01F040123A34005
:1033E0001A4300EB91131A6010BDC1F3044301228C
:1033F0009A40D24300EB91531A60704770B5024671
:1034000000230024C1F38910105801F01F06012584
:10341000B54000EA050302EB91500068C1F3044691
:103420000125B54000EA050414B10BB1012070BDBF
:103430000020FCE7C26822F00402C260C26801F00A
:1034400004031A43C2607047C26822F00802C260D7
:10345000C26801F008031A43C26070470000000010
:103460006E83F9A22915444ED15727FCC0DD34F5EF
:10347000999562DB4190433CAB6351FE9C3400085C
:1034800000000020CC0000003C1000086835000857
:10349000CC0000201C6200004C100008000000005E
:1034A000000000000000000000000000000000001C
:1034B000000000000000000000000000000000000C
:1034C00000000000000E270700100140001001401E
:1034D0000018014000180140010000000400000035
:1034E00001000000020000000E06110700020000AB
:1034F0000400000000040000080000000008014073
:103500000008014002060206040604060606060636
:103510000008014000100140000C014001000000C3
:103520000020000000400000020604060306000020
:103530000100000000200000004000000002010027
:103540000D0E06282800000000000000000000000A
:10355000090000000000003F000000000000000023
:08356000000000000000000063
:0400000508000131BD
:00000001FF
